{
  "abi": [
    {
      "inputs": [],
      "stateMutability": "nonpayable",
      "type": "constructor"
    },
    {
      "anonymous": false,
      "inputs": [
        {
          "indexed": true,
          "internalType": "address",
          "name": "owner",
          "type": "address"
        },
        {
          "indexed": true,
          "internalType": "address",
          "name": "spender",
          "type": "address"
        },
        {
          "indexed": false,
          "internalType": "uint256",
          "name": "value",
          "type": "uint256"
        }
      ],
      "name": "Approval",
      "type": "event"
    },
    {
      "anonymous": false,
      "inputs": [
        {
          "indexed": true,
          "internalType": "address",
          "name": "previousOwner",
          "type": "address"
        },
        {
          "indexed": true,
          "internalType": "address",
          "name": "newOwner",
          "type": "address"
        }
      ],
      "name": "OwnershipTransferred",
      "type": "event"
    },
    {
      "anonymous": false,
      "inputs": [
        {
          "indexed": true,
          "internalType": "address",
          "name": "from",
          "type": "address"
        },
        {
          "indexed": true,
          "internalType": "address",
          "name": "to",
          "type": "address"
        },
        {
          "indexed": false,
          "internalType": "uint256",
          "name": "value",
          "type": "uint256"
        }
      ],
      "name": "Transfer",
      "type": "event"
    },
    {
      "inputs": [],
      "name": "adventureGoldPerTokenId",
      "outputs": [
        {
          "internalType": "uint256",
          "name": "",
          "type": "uint256"
        }
      ],
      "stateMutability": "view",
      "type": "function"
    },
    {
      "inputs": [
        {
          "internalType": "address",
          "name": "owner",
          "type": "address"
        },
        {
          "internalType": "address",
          "name": "spender",
          "type": "address"
        }
      ],
      "name": "allowance",
      "outputs": [
        {
          "internalType": "uint256",
          "name": "",
          "type": "uint256"
        }
      ],
      "stateMutability": "view",
      "type": "function"
    },
    {
      "inputs": [
        {
          "internalType": "address",
          "name": "spender",
          "type": "address"
        },
        {
          "internalType": "uint256",
          "name": "amount",
          "type": "uint256"
        }
      ],
      "name": "approve",
      "outputs": [
        {
          "internalType": "bool",
          "name": "",
          "type": "bool"
        }
      ],
      "stateMutability": "nonpayable",
      "type": "function"
    },
    {
      "inputs": [
        {
          "internalType": "address",
          "name": "account",
          "type": "address"
        }
      ],
      "name": "balanceOf",
      "outputs": [
        {
          "internalType": "uint256",
          "name": "",
          "type": "uint256"
        }
      ],
      "stateMutability": "view",
      "type": "function"
    },
    {
      "inputs": [],
      "name": "claimAllForOwner",
      "outputs": [],
      "stateMutability": "nonpayable",
      "type": "function"
    },
    {
      "inputs": [
        {
          "internalType": "uint256",
          "name": "tokenId",
          "type": "uint256"
        }
      ],
      "name": "claimById",
      "outputs": [],
      "stateMutability": "nonpayable",
      "type": "function"
    },
    {
      "inputs": [
        {
          "internalType": "uint256",
          "name": "ownerIndexStart",
          "type": "uint256"
        },
        {
          "internalType": "uint256",
          "name": "ownerIndexEnd",
          "type": "uint256"
        }
      ],
      "name": "claimRangeForOwner",
      "outputs": [],
      "stateMutability": "nonpayable",
      "type": "function"
    },
    {
      "inputs": [
        {
          "internalType": "uint256",
          "name": "amountDisplayValue",
          "type": "uint256"
        }
      ],
      "name": "daoMint",
      "outputs": [],
      "stateMutability": "nonpayable",
      "type": "function"
    },
    {
      "inputs": [
        {
          "internalType": "uint256",
          "name": "adventureGoldDisplayValue",
          "type": "uint256"
        }
      ],
      "name": "daoSetAdventureGoldPerTokenId",
      "outputs": [],
      "stateMutability": "nonpayable",
      "type": "function"
    },
    {
      "inputs": [
        {
          "internalType": "address",
          "name": "lootContractAddress_",
          "type": "address"
        }
      ],
      "name": "daoSetLootContractAddress",
      "outputs": [],
      "stateMutability": "nonpayable",
      "type": "function"
    },
    {
      "inputs": [
        {
          "internalType": "uint256",
          "name": "season_",
          "type": "uint256"
        }
      ],
      "name": "daoSetSeason",
      "outputs": [],
      "stateMutability": "nonpayable",
      "type": "function"
    },
    {
      "inputs": [
        {
          "internalType": "uint256",
          "name": "season_",
          "type": "uint256"
        },
        {
          "internalType": "uint256",
          "name": "adventureGoldDisplayValue",
          "type": "uint256"
        }
      ],
      "name": "daoSetSeasonAndAdventureGoldPerTokenID",
      "outputs": [],
      "stateMutability": "nonpayable",
      "type": "function"
    },
    {
      "inputs": [
        {
          "internalType": "uint256",
          "name": "tokenIdStart_",
          "type": "uint256"
        },
        {
          "internalType": "uint256",
          "name": "tokenIdEnd_",
          "type": "uint256"
        }
      ],
      "name": "daoSetTokenIdRange",
      "outputs": [],
      "stateMutability": "nonpayable",
      "type": "function"
    },
    {
      "inputs": [],
      "name": "decimals",
      "outputs": [
        {
          "internalType": "uint8",
          "name": "",
          "type": "uint8"
        }
      ],
      "stateMutability": "view",
      "type": "function"
    },
    {
      "inputs": [
        {
          "internalType": "address",
          "name": "spender",
          "type": "address"
        },
        {
          "internalType": "uint256",
          "name": "subtractedValue",
          "type": "uint256"
        }
      ],
      "name": "decreaseAllowance",
      "outputs": [
        {
          "internalType": "bool",
          "name": "",
          "type": "bool"
        }
      ],
      "stateMutability": "nonpayable",
      "type": "function"
    },
    {
      "inputs": [
        {
          "internalType": "address",
          "name": "spender",
          "type": "address"
        },
        {
          "internalType": "uint256",
          "name": "addedValue",
          "type": "uint256"
        }
      ],
      "name": "increaseAllowance",
      "outputs": [
        {
          "internalType": "bool",
          "name": "",
          "type": "bool"
        }
      ],
      "stateMutability": "nonpayable",
      "type": "function"
    },
    {
      "inputs": [],
      "name": "lootContract",
      "outputs": [
        {
          "internalType": "contract IERC721Enumerable",
          "name": "",
          "type": "address"
        }
      ],
      "stateMutability": "view",
      "type": "function"
    },
    {
      "inputs": [],
      "name": "lootContractAddress",
      "outputs": [
        {
          "internalType": "address",
          "name": "",
          "type": "address"
        }
      ],
      "stateMutability": "view",
      "type": "function"
    },
    {
      "inputs": [],
      "name": "name",
      "outputs": [
        {
          "internalType": "string",
          "name": "",
          "type": "string"
        }
      ],
      "stateMutability": "view",
      "type": "function"
    },
    {
      "inputs": [],
      "name": "owner",
      "outputs": [
        {
          "internalType": "address",
          "name": "",
          "type": "address"
        }
      ],
      "stateMutability": "view",
      "type": "function"
    },
    {
      "inputs": [],
      "name": "renounceOwnership",
      "outputs": [],
      "stateMutability": "nonpayable",
      "type": "function"
    },
    {
      "inputs": [],
      "name": "season",
      "outputs": [
        {
          "internalType": "uint256",
          "name": "",
          "type": "uint256"
        }
      ],
      "stateMutability": "view",
      "type": "function"
    },
    {
      "inputs": [
        {
          "internalType": "uint256",
          "name": "",
          "type": "uint256"
        },
        {
          "internalType": "uint256",
          "name": "",
          "type": "uint256"
        }
      ],
      "name": "seasonClaimedByTokenId",
      "outputs": [
        {
          "internalType": "bool",
          "name": "",
          "type": "bool"
        }
      ],
      "stateMutability": "view",
      "type": "function"
    },
    {
      "inputs": [],
      "name": "symbol",
      "outputs": [
        {
          "internalType": "string",
          "name": "",
          "type": "string"
        }
      ],
      "stateMutability": "view",
      "type": "function"
    },
    {
      "inputs": [],
      "name": "tokenIdEnd",
      "outputs": [
        {
          "internalType": "uint256",
          "name": "",
          "type": "uint256"
        }
      ],
      "stateMutability": "view",
      "type": "function"
    },
    {
      "inputs": [],
      "name": "tokenIdStart",
      "outputs": [
        {
          "internalType": "uint256",
          "name": "",
          "type": "uint256"
        }
      ],
      "stateMutability": "view",
      "type": "function"
    },
    {
      "inputs": [],
      "name": "totalSupply",
      "outputs": [
        {
          "internalType": "uint256",
          "name": "",
          "type": "uint256"
        }
      ],
      "stateMutability": "view",
      "type": "function"
    },
    {
      "inputs": [
        {
          "internalType": "address",
          "name": "to",
          "type": "address"
        },
        {
          "internalType": "uint256",
          "name": "amount",
          "type": "uint256"
        }
      ],
      "name": "transfer",
      "outputs": [
        {
          "internalType": "bool",
          "name": "",
          "type": "bool"
        }
      ],
      "stateMutability": "nonpayable",
      "type": "function"
    },
    {
      "inputs": [
        {
          "internalType": "address",
          "name": "from",
          "type": "address"
        },
        {
          "internalType": "address",
          "name": "to",
          "type": "address"
        },
        {
          "internalType": "uint256",
          "name": "amount",
          "type": "uint256"
        }
      ],
      "name": "transferFrom",
      "outputs": [
        {
          "internalType": "bool",
          "name": "",
          "type": "bool"
        }
      ],
      "stateMutability": "nonpayable",
      "type": "function"
    },
    {
      "inputs": [
        {
          "internalType": "address",
          "name": "newOwner",
          "type": "address"
        }
      ],
      "name": "transferOwnership",
      "outputs": [],
      "stateMutability": "nonpayable",
      "type": "function"
    }
  ],
  "bytecode": {
    "object": "0x6080604052600680546001600160a01b03191673a324e0d0bec55840bdbccd760f7a998df859386c17905562000033601290565b6200004090600a6200042c565b6200004e9061271062000444565b6008556001600955611f40600a556000600b553480156200006e57600080fd5b506040518060400160405280600e81526020016d10591d995b9d1d5c994811dbdb1960921b815250604051806040016040528060048152602001631051d31160e21b815250620000cd620000c76200014860201b60201c565b6200014c565b8151620000e290600490602085019062000271565b508051620000f890600590602084019062000271565b50505062000120733e9a541f9633aa0a31302b4c729745845fbcd2426200019c60201b60201c565b600654600780546001600160a01b0319166001600160a01b03909216919091179055620004a3565b3390565b600080546001600160a01b038381166001600160a01b0319831681178455604051919092169283917f8be0079c531659141344cd1fd0a4f28419497f9722a3daafe3b4186f6b6457e09190a35050565b6000546001600160a01b03163314620001fc5760405162461bcd60e51b815260206004820181905260248201527f4f776e61626c653a2063616c6c6572206973206e6f7420746865206f776e657260448201526064015b60405180910390fd5b6001600160a01b038116620002635760405162461bcd60e51b815260206004820152602660248201527f4f776e61626c653a206e6577206f776e657220697320746865207a65726f206160448201526564647265737360d01b6064820152608401620001f3565b6200026e816200014c565b50565b8280546200027f9062000466565b90600052602060002090601f016020900481019282620002a35760008555620002ee565b82601f10620002be57805160ff1916838001178555620002ee565b82800160010185558215620002ee579182015b82811115620002ee578251825591602001919060010190620002d1565b50620002fc92915062000300565b5090565b5b80821115620002fc576000815560010162000301565b634e487b7160e01b600052601160045260246000fd5b600181815b808511156200036e57816000190482111562000352576200035262000317565b808516156200036057918102915b93841c939080029062000332565b509250929050565b600082620003875750600162000426565b81620003965750600062000426565b8160018114620003af5760028114620003ba57620003da565b600191505062000426565b60ff841115620003ce57620003ce62000317565b50506001821b62000426565b5060208310610133831016604e8410600b8410161715620003ff575081810a62000426565b6200040b83836200032d565b806000190482111562000422576200042262000317565b0290505b92915050565b60006200043d60ff84168362000376565b9392505050565b600081600019048311821515161562000461576200046162000317565b500290565b600181811c908216806200047b57607f821691505b602082108114156200049d57634e487b7160e01b600052602260045260246000fd5b50919050565b611d9f80620004b36000396000f3fe608060405234801561001057600080fd5b50600436106101da5760003560e01c806370a0823111610104578063a8af32e9116100a2578063cbf0b27611610071578063cbf0b27614610414578063dd62ed3e1461041c578063e5e808cb14610462578063f2fde38b1461049057600080fd5b8063a8af32e9146103c5578063a9059cbb146103e5578063becf7741146103f8578063c50b0fb01461040b57600080fd5b8063878e7ea5116100de578063878e7ea5146103795780638da5cb5b1461038c57806395d89b41146103aa578063a457c2d7146103b257600080fd5b806370a0823114610332578063715018a614610368578063845f290d1461037057600080fd5b806332565c491161017c57806342e473151161014b57806342e47315146102f057806343f42802146103035780634da7808a1461030c57806362759f6c1461031f57600080fd5b806332565c491461027257806332c882041461028557806335b48afd1461029857806339509351146102dd57600080fd5b806318f510eb116101b857806318f510eb1461023257806323b872dd146102475780632a3890621461025a578063313ce5671461026357600080fd5b806306fdde03146101df578063095ea7b3146101fd57806318160ddd14610220575b600080fd5b6101e76104a3565b6040516101f49190611959565b60405180910390f35b61021061020b3660046119ee565b610535565b60405190151581526020016101f4565b6003545b6040519081526020016101f4565b610245610240366004611a1a565b61054f565b005b610210610255366004611a3c565b6105eb565b61022460095481565b604051601281526020016101f4565b610245610280366004611a7d565b61060f565b610245610293366004611a96565b6106ac565b6007546102b89073ffffffffffffffffffffffffffffffffffffffff1681565b60405173ffffffffffffffffffffffffffffffffffffffff90911681526020016101f4565b6102106102eb3660046119ee565b61077e565b6102456102fe366004611a7d565b6107ca565b610224600a5481565b61024561031a366004611a1a565b610850565b61024561032d366004611a7d565b6108dc565b610224610340366004611a96565b73ffffffffffffffffffffffffffffffffffffffff1660009081526001602052604090205490565b61024561099d565b61022460085481565b610245610387366004611a1a565b610a2a565b60005473ffffffffffffffffffffffffffffffffffffffff166102b8565b6101e7610c8d565b6102106103c03660046119ee565b610c9c565b6006546102b89073ffffffffffffffffffffffffffffffffffffffff1681565b6102106103f33660046119ee565b610d6d565b610245610406366004611a7d565b610d7b565b610224600b5481565b610245610eac565b61022461042a366004611aba565b73ffffffffffffffffffffffffffffffffffffffff918216600090815260026020908152604080832093909416825291909152205490565b610210610470366004611a1a565b600c60209081526000928352604080842090915290825290205460ff1681565b61024561049e366004611a96565b61100c565b6060600480546104b290611af3565b80601f01602080910402602001604051908101604052809291908181526020018280546104de90611af3565b801561052b5780601f106105005761010080835404028352916020019161052b565b820191906000526020600020905b81548152906001019060200180831161050e57829003601f168201915b5050505050905090565b600033610543818585611139565b60019150505b92915050565b60005473ffffffffffffffffffffffffffffffffffffffff1633146105d5576040517f08c379a000000000000000000000000000000000000000000000000000000000815260206004820181905260248201527f4f776e61626c653a2063616c6c6572206973206e6f7420746865206f776e657260448201526064015b60405180910390fd5b6105de826107ca565b6105e78161060f565b5050565b6000336105f98582856112ec565b6106048585856113bd565b506001949350505050565b60005473ffffffffffffffffffffffffffffffffffffffff163314610690576040517f08c379a000000000000000000000000000000000000000000000000000000000815260206004820181905260248201527f4f776e61626c653a2063616c6c6572206973206e6f7420746865206f776e657260448201526064016105cc565b61069c6012600a611c96565b6106a69082611ca5565b60085550565b60005473ffffffffffffffffffffffffffffffffffffffff16331461072d576040517f08c379a000000000000000000000000000000000000000000000000000000000815260206004820181905260248201527f4f776e61626c653a2063616c6c6572206973206e6f7420746865206f776e657260448201526064016105cc565b6006805473ffffffffffffffffffffffffffffffffffffffff9092167fffffffffffffffffffffffff0000000000000000000000000000000000000000928316811790915560078054909216179055565b33600081815260026020908152604080832073ffffffffffffffffffffffffffffffffffffffff8716845290915281205490919061054390829086906107c5908790611ce2565b611139565b60005473ffffffffffffffffffffffffffffffffffffffff16331461084b576040517f08c379a000000000000000000000000000000000000000000000000000000000815260206004820181905260248201527f4f776e61626c653a2063616c6c6572206973206e6f7420746865206f776e657260448201526064016105cc565b600b55565b60005473ffffffffffffffffffffffffffffffffffffffff1633146108d1576040517f08c379a000000000000000000000000000000000000000000000000000000000815260206004820181905260248201527f4f776e61626c653a2063616c6c6572206973206e6f7420746865206f776e657260448201526064016105cc565b600991909155600a55565b60005473ffffffffffffffffffffffffffffffffffffffff16331461095d576040517f08c379a000000000000000000000000000000000000000000000000000000000815260206004820181905260248201527f4f776e61626c653a2063616c6c6572206973206e6f7420746865206f776e657260448201526064016105cc565b61099a61097f60005473ffffffffffffffffffffffffffffffffffffffff1690565b61098b6012600a611c96565b6109959084611ca5565b611670565b50565b60005473ffffffffffffffffffffffffffffffffffffffff163314610a1e576040517f08c379a000000000000000000000000000000000000000000000000000000000815260206004820181905260248201527f4f776e61626c653a2063616c6c6572206973206e6f7420746865206f776e657260448201526064016105cc565b610a286000611790565b565b60075460009073ffffffffffffffffffffffffffffffffffffffff166370a08231336040517fffffffff0000000000000000000000000000000000000000000000000000000060e084901b16815273ffffffffffffffffffffffffffffffffffffffff9091166004820152602401602060405180830381865afa158015610ab5573d6000803e3d6000fd5b505050506040513d601f19601f82011682018060405250810190610ad99190611cfa565b905060008111610b45576040517f08c379a000000000000000000000000000000000000000000000000000000000815260206004820152600f60248201527f4e4f5f544f4b454e535f4f574e4544000000000000000000000000000000000060448201526064016105cc565b808210610bae576040517f08c379a000000000000000000000000000000000000000000000000000000000815260206004820152601260248201527f494e4445585f4f55545f4f465f52414e4745000000000000000000000000000060448201526064016105cc565b825b828111610c8757600754610c759073ffffffffffffffffffffffffffffffffffffffff16632f745c59335b6040517fffffffff0000000000000000000000000000000000000000000000000000000060e084901b16815273ffffffffffffffffffffffffffffffffffffffff909116600482015260248101859052604401602060405180830381865afa158015610c4b573d6000803e3d6000fd5b505050506040513d601f19601f82011682018060405250810190610c6f9190611cfa565b33611805565b80610c7f81611d13565b915050610bb0565b50505050565b6060600580546104b290611af3565b33600081815260026020908152604080832073ffffffffffffffffffffffffffffffffffffffff8716845290915281205490919083811015610d60576040517f08c379a000000000000000000000000000000000000000000000000000000000815260206004820152602560248201527f45524332303a2064656372656173656420616c6c6f77616e63652062656c6f7760448201527f207a65726f00000000000000000000000000000000000000000000000000000060648201526084016105cc565b6106048286868403611139565b6000336105438185856113bd565b6007546040517f6352211e0000000000000000000000000000000000000000000000000000000081526004810183905273ffffffffffffffffffffffffffffffffffffffff90911690636352211e90602401602060405180830381865afa158015610dea573d6000803e3d6000fd5b505050506040513d601f19601f82011682018060405250810190610e0e9190611d4c565b73ffffffffffffffffffffffffffffffffffffffff163373ffffffffffffffffffffffffffffffffffffffff1614610ea2576040517f08c379a000000000000000000000000000000000000000000000000000000000815260206004820152601160248201527f4d5553545f4f574e5f544f4b454e5f494400000000000000000000000000000060448201526064016105cc565b61099a8133611805565b60075460009073ffffffffffffffffffffffffffffffffffffffff166370a08231336040517fffffffff0000000000000000000000000000000000000000000000000000000060e084901b16815273ffffffffffffffffffffffffffffffffffffffff9091166004820152602401602060405180830381865afa158015610f37573d6000803e3d6000fd5b505050506040513d601f19601f82011682018060405250810190610f5b9190611cfa565b905060008111610fc7576040517f08c379a000000000000000000000000000000000000000000000000000000000815260206004820152600f60248201527f4e4f5f544f4b454e535f4f574e4544000000000000000000000000000000000060448201526064016105cc565b60005b818110156105e757600754610ffa9073ffffffffffffffffffffffffffffffffffffffff16632f745c5933610bdb565b8061100481611d13565b915050610fca565b60005473ffffffffffffffffffffffffffffffffffffffff16331461108d576040517f08c379a000000000000000000000000000000000000000000000000000000000815260206004820181905260248201527f4f776e61626c653a2063616c6c6572206973206e6f7420746865206f776e657260448201526064016105cc565b73ffffffffffffffffffffffffffffffffffffffff8116611130576040517f08c379a000000000000000000000000000000000000000000000000000000000815260206004820152602660248201527f4f776e61626c653a206e6577206f776e657220697320746865207a65726f206160448201527f646472657373000000000000000000000000000000000000000000000000000060648201526084016105cc565b61099a81611790565b73ffffffffffffffffffffffffffffffffffffffff83166111db576040517f08c379a0000000000000000000000000000000000000000000000000000000008152602060048201526024808201527f45524332303a20617070726f76652066726f6d20746865207a65726f2061646460448201527f726573730000000000000000000000000000000000000000000000000000000060648201526084016105cc565b73ffffffffffffffffffffffffffffffffffffffff821661127e576040517f08c379a000000000000000000000000000000000000000000000000000000000815260206004820152602260248201527f45524332303a20617070726f766520746f20746865207a65726f20616464726560448201527f737300000000000000000000000000000000000000000000000000000000000060648201526084016105cc565b73ffffffffffffffffffffffffffffffffffffffff83811660008181526002602090815260408083209487168084529482529182902085905590518481527f8c5be1e5ebec7d5bd14f71427d1e84f3dd0314c0f7b2291e5b200ac8c7c3b925910160405180910390a3505050565b73ffffffffffffffffffffffffffffffffffffffff8381166000908152600260209081526040808320938616835292905220547fffffffffffffffffffffffffffffffffffffffffffffffffffffffffffffffff8114610c8757818110156113b0576040517f08c379a000000000000000000000000000000000000000000000000000000000815260206004820152601d60248201527f45524332303a20696e73756666696369656e7420616c6c6f77616e636500000060448201526064016105cc565b610c878484848403611139565b73ffffffffffffffffffffffffffffffffffffffff8316611460576040517f08c379a000000000000000000000000000000000000000000000000000000000815260206004820152602560248201527f45524332303a207472616e736665722066726f6d20746865207a65726f20616460448201527f647265737300000000000000000000000000000000000000000000000000000060648201526084016105cc565b73ffffffffffffffffffffffffffffffffffffffff8216611503576040517f08c379a000000000000000000000000000000000000000000000000000000000815260206004820152602360248201527f45524332303a207472616e7366657220746f20746865207a65726f206164647260448201527f657373000000000000000000000000000000000000000000000000000000000060648201526084016105cc565b73ffffffffffffffffffffffffffffffffffffffff8316600090815260016020526040902054818110156115b9576040517f08c379a000000000000000000000000000000000000000000000000000000000815260206004820152602660248201527f45524332303a207472616e7366657220616d6f756e742065786365656473206260448201527f616c616e6365000000000000000000000000000000000000000000000000000060648201526084016105cc565b73ffffffffffffffffffffffffffffffffffffffff8085166000908152600160205260408082208585039055918516815290812080548492906115fd908490611ce2565b925050819055508273ffffffffffffffffffffffffffffffffffffffff168473ffffffffffffffffffffffffffffffffffffffff167fddf252ad1be2c89b69c2b068fc378daa952ba7f163c4a11628f55a4df523b3ef8460405161166391815260200190565b60405180910390a3610c87565b73ffffffffffffffffffffffffffffffffffffffff82166116ed576040517f08c379a000000000000000000000000000000000000000000000000000000000815260206004820152601f60248201527f45524332303a206d696e7420746f20746865207a65726f20616464726573730060448201526064016105cc565b80600360008282546116ff9190611ce2565b909155505073ffffffffffffffffffffffffffffffffffffffff821660009081526001602052604081208054839290611739908490611ce2565b909155505060405181815273ffffffffffffffffffffffffffffffffffffffff8316906000907fddf252ad1be2c89b69c2b068fc378daa952ba7f163c4a11628f55a4df523b3ef9060200160405180910390a35050565b6000805473ffffffffffffffffffffffffffffffffffffffff8381167fffffffffffffffffffffffff0000000000000000000000000000000000000000831681178455604051919092169283917f8be0079c531659141344cd1fd0a4f28419497f9722a3daafe3b4186f6b6457e09190a35050565b60095482101580156118195750600a548211155b61187f576040517f08c379a000000000000000000000000000000000000000000000000000000000815260206004820152601560248201527f544f4b454e5f49445f4f55545f4f465f52414e4745000000000000000000000060448201526064016105cc565b600b546000908152600c6020908152604080832085845290915290205460ff1615611906576040517f08c379a000000000000000000000000000000000000000000000000000000000815260206004820152601960248201527f474f4c445f434c41494d45445f464f525f544f4b454e5f49440000000000000060448201526064016105cc565b600b546000908152600c60209081526040808320858452909152902080547fffffffffffffffffffffffffffffffffffffffffffffffffffffffffffffff001660011790556008546105e7908290611670565b600060208083528351808285015260005b818110156119865785810183015185820160400152820161196a565b81811115611998576000604083870101525b50601f017fffffffffffffffffffffffffffffffffffffffffffffffffffffffffffffffe016929092016040019392505050565b73ffffffffffffffffffffffffffffffffffffffff8116811461099a57600080fd5b60008060408385031215611a0157600080fd5b8235611a0c816119cc565b946020939093013593505050565b60008060408385031215611a2d57600080fd5b50508035926020909101359150565b600080600060608486031215611a5157600080fd5b8335611a5c816119cc565b92506020840135611a6c816119cc565b929592945050506040919091013590565b600060208284031215611a8f57600080fd5b5035919050565b600060208284031215611aa857600080fd5b8135611ab3816119cc565b9392505050565b60008060408385031215611acd57600080fd5b8235611ad8816119cc565b91506020830135611ae8816119cc565b809150509250929050565b600181811c90821680611b0757607f821691505b60208210811415611b41577f4e487b7100000000000000000000000000000000000000000000000000000000600052602260045260246000fd5b50919050565b7f4e487b7100000000000000000000000000000000000000000000000000000000600052601160045260246000fd5b600181815b80851115611bcf57817fffffffffffffffffffffffffffffffffffffffffffffffffffffffffffffffff04821115611bb557611bb5611b47565b80851615611bc257918102915b93841c9390800290611b7b565b509250929050565b600082611be657506001610549565b81611bf357506000610549565b8160018114611c095760028114611c1357611c2f565b6001915050610549565b60ff841115611c2457611c24611b47565b50506001821b610549565b5060208310610133831016604e8410600b8410161715611c52575081810a610549565b611c5c8383611b76565b807fffffffffffffffffffffffffffffffffffffffffffffffffffffffffffffffff04821115611c8e57611c8e611b47565b029392505050565b6000611ab360ff841683611bd7565b6000817fffffffffffffffffffffffffffffffffffffffffffffffffffffffffffffffff0483118215151615611cdd57611cdd611b47565b500290565b60008219821115611cf557611cf5611b47565b500190565b600060208284031215611d0c57600080fd5b5051919050565b60007fffffffffffffffffffffffffffffffffffffffffffffffffffffffffffffffff821415611d4557611d45611b47565b5060010190565b600060208284031215611d5e57600080fd5b8151611ab3816119cc56fea2646970667358221220500e6b461d13a0c06132d190d9c975d9b2d0bbb2ea2032793372ab205ad94c5764736f6c634300080a0033",
    "linkReferences": {}
  }
}