{
  "abi": [
    {
      "inputs": [
        {
          "internalType": "uint256",
          "name": "_numEpochs",
          "type": "uint256"
        },
        {
          "internalType": "uint256",
          "name": "_epochDuration",
          "type": "uint256"
        },
        {
          "internalType": "uint256",
          "name": "_lootWeight",
          "type": "uint256"
        },
        {
          "internalType": "uint256",
          "name": "_mLootWeight",
          "type": "uint256"
        }
      ],
      "stateMutability": "nonpayable",
      "type": "constructor"
    },
    {
      "inputs": [],
      "name": "BagAlreadyStaked",
      "type": "error"
    },
    {
      "inputs": [],
      "name": "EpochInvalid",
      "type": "error"
    },
    {
      "inputs": [],
      "name": "NotBagOwner",
      "type": "error"
    },
    {
      "inputs": [],
      "name": "StakingAlreadyStarted",
      "type": "error"
    },
    {
      "inputs": [],
      "name": "StakingEnded",
      "type": "error"
    },
    {
      "inputs": [],
      "name": "StakingNotActive",
      "type": "error"
    },
    {
      "inputs": [],
      "name": "StartTimeInvalid",
      "type": "error"
    },
    {
      "inputs": [],
      "name": "WeightsInvalid",
      "type": "error"
    },
    {
      "anonymous": false,
      "inputs": [
        {
          "indexed": true,
          "internalType": "address",
          "name": "_owner",
          "type": "address"
        },
        {
          "indexed": true,
          "internalType": "uint256",
          "name": "_numBags",
          "type": "uint256"
        }
      ],
      "name": "BagsStaked",
      "type": "event"
    },
    {
      "anonymous": false,
      "inputs": [
        {
          "indexed": true,
          "internalType": "address",
          "name": "previousOwner",
          "type": "address"
        },
        {
          "indexed": true,
          "internalType": "address",
          "name": "newOwner",
          "type": "address"
        }
      ],
      "name": "OwnershipTransferred",
      "type": "event"
    },
    {
      "anonymous": false,
      "inputs": [
        {
          "indexed": true,
          "internalType": "uint256",
          "name": "_rewards",
          "type": "uint256"
        }
      ],
      "name": "RewardsAdded",
      "type": "event"
    },
    {
      "anonymous": false,
      "inputs": [
        {
          "indexed": true,
          "internalType": "address",
          "name": "_owner",
          "type": "address"
        },
        {
          "indexed": true,
          "internalType": "uint256",
          "name": "_amount",
          "type": "uint256"
        }
      ],
      "name": "RewardsClaimed",
      "type": "event"
    },
    {
      "anonymous": false,
      "inputs": [
        {
          "indexed": true,
          "internalType": "uint256",
          "name": "_startTime",
          "type": "uint256"
        }
      ],
      "name": "StakingStarted",
      "type": "event"
    },
    {
      "anonymous": false,
      "inputs": [
        {
          "indexed": true,
          "internalType": "uint256",
          "name": "_lootWeight",
          "type": "uint256"
        },
        {
          "indexed": true,
          "internalType": "uint256",
          "name": "_mLootWeight",
          "type": "uint256"
        }
      ],
      "name": "WeightsSet",
      "type": "event"
    },
    {
      "inputs": [],
      "name": "AGLD",
      "outputs": [
        {
          "internalType": "contract ERC20",
          "name": "",
          "type": "address"
        }
      ],
      "stateMutability": "view",
      "type": "function"
    },
    {
      "inputs": [],
      "name": "LOOT",
      "outputs": [
        {
          "internalType": "contract ERC721",
          "name": "",
          "type": "address"
        }
      ],
      "stateMutability": "view",
      "type": "function"
    },
    {
      "inputs": [],
      "name": "MLOOT",
      "outputs": [
        {
          "internalType": "contract ERC721",
          "name": "",
          "type": "address"
        }
      ],
      "stateMutability": "view",
      "type": "function"
    },
    {
      "inputs": [
        {
          "internalType": "uint256[]",
          "name": "_ids",
          "type": "uint256[]"
        }
      ],
      "name": "claimLootRewards",
      "outputs": [],
      "stateMutability": "nonpayable",
      "type": "function"
    },
    {
      "inputs": [
        {
          "internalType": "uint256[]",
          "name": "_ids",
          "type": "uint256[]"
        }
      ],
      "name": "claimMLootRewards",
      "outputs": [],
      "stateMutability": "nonpayable",
      "type": "function"
    },
    {
      "inputs": [],
      "name": "epochDuration",
      "outputs": [
        {
          "internalType": "uint256",
          "name": "",
          "type": "uint256"
        }
      ],
      "stateMutability": "view",
      "type": "function"
    },
    {
      "inputs": [
        {
          "internalType": "uint256",
          "name": "",
          "type": "uint256"
        },
        {
          "internalType": "uint256",
          "name": "",
          "type": "uint256"
        }
      ],
      "name": "epochsByLootId",
      "outputs": [
        {
          "internalType": "uint256",
          "name": "",
          "type": "uint256"
        }
      ],
      "stateMutability": "view",
      "type": "function"
    },
    {
      "inputs": [
        {
          "internalType": "uint256",
          "name": "",
          "type": "uint256"
        },
        {
          "internalType": "uint256",
          "name": "",
          "type": "uint256"
        }
      ],
      "name": "epochsByMLootId",
      "outputs": [
        {
          "internalType": "uint256",
          "name": "",
          "type": "uint256"
        }
      ],
      "stateMutability": "view",
      "type": "function"
    },
    {
      "inputs": [],
      "name": "getCurrentEpoch",
      "outputs": [
        {
          "internalType": "uint256",
          "name": "currentEpoch",
          "type": "uint256"
        }
      ],
      "stateMutability": "view",
      "type": "function"
    },
    {
      "inputs": [
        {
          "internalType": "uint256",
          "name": "_id",
          "type": "uint256"
        }
      ],
      "name": "getRewardsForLootBag",
      "outputs": [
        {
          "internalType": "uint256",
          "name": "rewards",
          "type": "uint256"
        }
      ],
      "stateMutability": "view",
      "type": "function"
    },
    {
      "inputs": [
        {
          "internalType": "uint256",
          "name": "_id",
          "type": "uint256"
        }
      ],
      "name": "getRewardsForMLootBag",
      "outputs": [
        {
          "internalType": "uint256",
          "name": "rewards",
          "type": "uint256"
        }
      ],
      "stateMutability": "view",
      "type": "function"
    },
    {
      "inputs": [],
      "name": "getTotalRewardPerEpoch",
      "outputs": [
        {
          "internalType": "uint256",
          "name": "amount",
          "type": "uint256"
        }
      ],
      "stateMutability": "view",
      "type": "function"
    },
    {
      "inputs": [
        {
          "internalType": "uint256",
          "name": "_epoch",
          "type": "uint256"
        }
      ],
      "name": "getWeightsForEpoch",
      "outputs": [
        {
          "internalType": "uint256",
          "name": "lootWeight",
          "type": "uint256"
        },
        {
          "internalType": "uint256",
          "name": "mLootWeight",
          "type": "uint256"
        }
      ],
      "stateMutability": "view",
      "type": "function"
    },
    {
      "inputs": [
        {
          "internalType": "uint256",
          "name": "_amount",
          "type": "uint256"
        }
      ],
      "name": "notifyRewardAmount",
      "outputs": [],
      "stateMutability": "nonpayable",
      "type": "function"
    },
    {
      "inputs": [],
      "name": "numEpochs",
      "outputs": [
        {
          "internalType": "uint256",
          "name": "",
          "type": "uint256"
        }
      ],
      "stateMutability": "view",
      "type": "function"
    },
    {
      "inputs": [
        {
          "internalType": "uint256",
          "name": "",
          "type": "uint256"
        }
      ],
      "name": "numLootStakedByEpoch",
      "outputs": [
        {
          "internalType": "uint256",
          "name": "",
          "type": "uint256"
        }
      ],
      "stateMutability": "view",
      "type": "function"
    },
    {
      "inputs": [
        {
          "internalType": "uint256",
          "name": "",
          "type": "uint256"
        }
      ],
      "name": "numMLootStakedByEpoch",
      "outputs": [
        {
          "internalType": "uint256",
          "name": "",
          "type": "uint256"
        }
      ],
      "stateMutability": "view",
      "type": "function"
    },
    {
      "inputs": [],
      "name": "owner",
      "outputs": [
        {
          "internalType": "address",
          "name": "",
          "type": "address"
        }
      ],
      "stateMutability": "view",
      "type": "function"
    },
    {
      "inputs": [],
      "name": "renounceOwnership",
      "outputs": [],
      "stateMutability": "nonpayable",
      "type": "function"
    },
    {
      "inputs": [],
      "name": "rewardsAmount",
      "outputs": [
        {
          "internalType": "uint256",
          "name": "",
          "type": "uint256"
        }
      ],
      "stateMutability": "view",
      "type": "function"
    },
    {
      "inputs": [
        {
          "internalType": "uint256",
          "name": "_startTime",
          "type": "uint256"
        }
      ],
      "name": "setStakingStartTime",
      "outputs": [],
      "stateMutability": "nonpayable",
      "type": "function"
    },
    {
      "inputs": [
        {
          "internalType": "uint256",
          "name": "_epoch",
          "type": "uint256"
        },
        {
          "internalType": "uint256",
          "name": "_lootWeight",
          "type": "uint256"
        },
        {
          "internalType": "uint256",
          "name": "_mLootWeight",
          "type": "uint256"
        }
      ],
      "name": "setWeightsForEpoch",
      "outputs": [],
      "stateMutability": "nonpayable",
      "type": "function"
    },
    {
      "inputs": [
        {
          "internalType": "uint256[]",
          "name": "_ids",
          "type": "uint256[]"
        }
      ],
      "name": "signalLootStake",
      "outputs": [],
      "stateMutability": "nonpayable",
      "type": "function"
    },
    {
      "inputs": [
        {
          "internalType": "uint256[]",
          "name": "_ids",
          "type": "uint256[]"
        }
      ],
      "name": "signalMLootStake",
      "outputs": [],
      "stateMutability": "nonpayable",
      "type": "function"
    },
    {
      "inputs": [
        {
          "internalType": "uint256",
          "name": "",
          "type": "uint256"
        },
        {
          "internalType": "uint256",
          "name": "",
          "type": "uint256"
        }
      ],
      "name": "stakedLootIdsByEpoch",
      "outputs": [
        {
          "internalType": "bool",
          "name": "",
          "type": "bool"
        }
      ],
      "stateMutability": "view",
      "type": "function"
    },
    {
      "inputs": [
        {
          "internalType": "uint256",
          "name": "",
          "type": "uint256"
        },
        {
          "internalType": "uint256",
          "name": "",
          "type": "uint256"
        }
      ],
      "name": "stakedMLootIdsByEpoch",
      "outputs": [
        {
          "internalType": "bool",
          "name": "",
          "type": "bool"
        }
      ],
      "stateMutability": "view",
      "type": "function"
    },
    {
      "inputs": [],
      "name": "stakingStartTime",
      "outputs": [
        {
          "internalType": "uint256",
          "name": "",
          "type": "uint256"
        }
      ],
      "stateMutability": "view",
      "type": "function"
    },
    {
      "inputs": [
        {
          "internalType": "address",
          "name": "newOwner",
          "type": "address"
        }
      ],
      "name": "transferOwnership",
      "outputs": [],
      "stateMutability": "nonpayable",
      "type": "function"
    }
  ],
  "bytecode": {
    "object": "0x60c06040523480156200001157600080fd5b506040516200257a3803806200257a833981016040819052620000349162000226565b6200003f336200016f565b608084905260a0839052836001600160401b038111156200006457620000646200025d565b6040519080825280602002602001820160405280156200008e578160200160208202803683370190505b508051620000a591600391602090910190620001bf565b506080516001600160401b03811115620000c357620000c36200025d565b604051908082528060200260200182016040528015620000ed578160200160208202803683370190505b5080516200010491600491602090910190620001bf565b5060005b608051811015620001645782600382815481106200012a576200012a62000273565b906000526020600020018190555081600482815481106200014f576200014f62000273565b60009182526020909120015560010162000108565b505050505062000289565b600080546001600160a01b038381166001600160a01b0319831681178455604051919092169283917f8be0079c531659141344cd1fd0a4f28419497f9722a3daafe3b4186f6b6457e09190a35050565b828054828255906000526020600020908101928215620001fd579160200282015b82811115620001fd578251825591602001919060010190620001e0565b506200020b9291506200020f565b5090565b5b808211156200020b576000815560010162000210565b600080600080608085870312156200023d57600080fd5b505082516020840151604085015160609095015191969095509092509050565b634e487b7160e01b600052604160045260246000fd5b634e487b7160e01b600052603260045260246000fd5b60805160a0516122a8620002d26000396000818161024f0152818161074a0152610a4f01526000818161039a015281816104a601528181610b4d01526111c601526122a86000f3fe608060405234801561001057600080fd5b50600436106101c45760003560e01c80638da5cb5b116100f9578063c24ccaa611610097578063edc72d8b11610071578063edc72d8b1461043c578063efb88c651461045c578063f2fde38b1461046f578063f7374a001461048257600080fd5b8063c24ccaa6146103e0578063ebfda0851461040e578063ed7826671461042957600080fd5b80639c470766116100d35780639c47076614610395578063b4be4888146103bc578063b97dd9e2146103cf578063c13d995c146103d757600080fd5b80638da5cb5b14610351578063969d36a01461036f5780639b4062d11461038257600080fd5b80636abfd1831161016657806376e7e91c1161014057806376e7e91c146102bb5780637acf84f5146102ce5780638334011e1461030e57806387d29d1c1461033657600080fd5b80636abfd183146102975780636c4a829e146102a0578063715018a6146102b357600080fd5b80633c6b16ab116101a25780633c6b16ab146102355780634ff0876a1461024a5780635d90bad914610271578063617ab0681461028457600080fd5b80630bb4c4bb146101c95780631dd12c78146101e457806338b2802314610222575b600080fd5b6101d16104a2565b6040519081526020015b60405180910390f35b6102126101f2366004612014565b600560209081526000928352604080842090915290825290205460ff1681565b60405190151581526020016101db565b6101d1610230366004612036565b6104d7565b610248610243366004612036565b610594565b005b6101d17f000000000000000000000000000000000000000000000000000000000000000081565b61024861027f366004612036565b61068a565b6101d1610292366004612036565b6107db565b6101d160015481565b6102486102ae36600461204f565b610892565b6102486108bb565b6101d16102c9366004612014565b610948565b6102e9731dfe7ca09e99d10835bf73044a23b73fc20623df81565b60405173ffffffffffffffffffffffffffffffffffffffff90911681526020016101db565b61032161031c366004612036565b610979565b604080519283526020830191909152016101db565b6102e97332353a6c91143bfd6c7d363b546e62a9a2489a2081565b60005473ffffffffffffffffffffffffffffffffffffffff166102e9565b61024861037d36600461204f565b6109d7565b6101d1610390366004612014565b6109fc565b6101d17f000000000000000000000000000000000000000000000000000000000000000081565b6102486103ca36600461204f565b610a18565b6101d1610a3b565b6101d160025481565b6102126103ee366004612014565b600860209081526000928352604080842090915290825290205460ff1681565b6102e973ff9c1b15b16263c61d017ee9f65c50e4ae0113d781565b61024861043736600461204f565b610a91565b6101d161044a366004612036565b60076020526000908152604090205481565b61024861046a3660046120c4565b610ab4565b61024861047d366004612112565b610c71565b6101d1610490366004612036565b600a6020526000908152604090205481565b60007f00000000000000000000000000000000000000000000000000000000000000006002546104d2919061218d565b905090565b600061058e600480548060200260200160405190810160405280929190818152602001828054801561052857602002820191906000526020600020905b815481526020019060010190808311610514575b5050506000868152600960209081526040918290208054835181840281018401909452808452929450925083018282801561058257602002820191906000526020600020905b81548152602001906001019080831161056e575b5050505050600a610da1565b92915050565b60005473ffffffffffffffffffffffffffffffffffffffff16331461061a576040517f08c379a000000000000000000000000000000000000000000000000000000000815260206004820181905260248201527f4f776e61626c653a2063616c6c6572206973206e6f7420746865206f776e657260448201526064015b60405180910390fd5b60015415610654576040517fdb7e47e200000000000000000000000000000000000000000000000000000000815260040160405180910390fd5b600280548201905560405181907ff8fad42e780bfa5459be3fe691e8ba1aec70342250112139c5771c3fd155f31290600090a250565b60005473ffffffffffffffffffffffffffffffffffffffff16331461070b576040517f08c379a000000000000000000000000000000000000000000000000000000000815260206004820181905260248201527f4f776e61626c653a2063616c6c6572206973206e6f7420746865206f776e65726044820152606401610611565b60015415610745576040517fdb7e47e200000000000000000000000000000000000000000000000000000000815260040160405180910390fd5b61076f7f0000000000000000000000000000000000000000000000000000000000000000426121c8565b8110156107a8576040517fabae9c1c00000000000000000000000000000000000000000000000000000000815260040160405180910390fd5b600181905560405181907fb86012c44e844c72c9cdc4b00c639e78d7a96cd093eb33d662cb480122ea69d190600090a250565b600061058e600380548060200260200160405190810160405280929190818152602001828054801561082c57602002820191906000526020600020905b815481526020019060010190808311610818575b5050506000868152600660209081526040918290208054835181840281018401909452808452929450925083018282801561088657602002820191906000526020600020905b815481526020019060010190808311610872575b50505050506007610da1565b6108b7828273ff9c1b15b16263c61d017ee9f65c50e4ae0113d7600360066007610e52565b5050565b60005473ffffffffffffffffffffffffffffffffffffffff16331461093c576040517f08c379a000000000000000000000000000000000000000000000000000000000815260206004820181905260248201527f4f776e61626c653a2063616c6c6572206973206e6f7420746865206f776e65726044820152606401610611565b610946600061110a565b565b6006602052816000526040600020818154811061096457600080fd5b90600052602060002001600091509150505481565b60008060036109896001856121e0565b81548110610999576109996121f7565b9060005260206000200154915060046001846109b591906121e0565b815481106109c5576109c56121f7565b90600052602060002001549050915091565b6108b78282731dfe7ca09e99d10835bf73044a23b73fc20623df60046009600a610e52565b6009602052816000526040600020818154811061096457600080fd5b6108b7828273ff9c1b15b16263c61d017ee9f65c50e4ae0113d76005600761117f565b6000600154421015610a4d5750600090565b7f000000000000000000000000000000000000000000000000000000000000000060015442610a7c91906121e0565b610a86919061218d565b6104d29060016121c8565b6108b78282731dfe7ca09e99d10835bf73044a23b73fc20623df6008600a61117f565b60005473ffffffffffffffffffffffffffffffffffffffff163314610b35576040517f08c379a000000000000000000000000000000000000000000000000000000000815260206004820181905260248201527f4f776e61626c653a2063616c6c6572206973206e6f7420746865206f776e65726044820152606401610611565b6000610b3f610a3b565b90508084111580610b6f57507f000000000000000000000000000000000000000000000000000000000000000084115b15610ba6576040517fdce171d300000000000000000000000000000000000000000000000000000000815260040160405180910390fd5b610bb082846121c8565b61271014610bea576040517f124955fb00000000000000000000000000000000000000000000000000000000815260040160405180910390fd5b826003610bf86001876121e0565b81548110610c0857610c086121f7565b600091825260209091200155816004610c226001876121e0565b81548110610c3257610c326121f7565b6000918252602082200191909155604051839185917fdd66d0d77e3f97736c3a04f87e46aba70cf90de43c1a271565139a7c6b9c60959190a350505050565b60005473ffffffffffffffffffffffffffffffffffffffff163314610cf2576040517f08c379a000000000000000000000000000000000000000000000000000000000815260206004820181905260248201527f4f776e61626c653a2063616c6c6572206973206e6f7420746865206f776e65726044820152606401610611565b73ffffffffffffffffffffffffffffffffffffffff8116610d95576040517f08c379a000000000000000000000000000000000000000000000000000000000815260206004820152602660248201527f4f776e61626c653a206e6577206f776e657220697320746865207a65726f206160448201527f64647265737300000000000000000000000000000000000000000000000000006064820152608401610611565b610d9e8161110a565b50565b600080610dac6104a2565b90506000610db8610a3b565b85519091506000805b82811015610e4657878181518110610ddb57610ddb6121f7565b60200260200101519150838214610e3e5786600060018403815260200190815260200160002054610e2b868b6001860381518110610e1b57610e1b6121f7565b6020026020010151612710611415565b81610e3857610e3861212f565b04860195505b600101610dc1565b50505050509392505050565b600080610e5d6104a2565b90506000610e69610a3b565b9050876000808080805b858110156110ad578e8e82818110610e8d57610e8d6121f7565b9050602002013594503373ffffffffffffffffffffffffffffffffffffffff168d73ffffffffffffffffffffffffffffffffffffffff16636352211e876040518263ffffffff1660e01b8152600401610ee891815260200190565b602060405180830381865afa158015610f05573d6000803e3d6000fd5b505050506040513d601f19601f82011682018060405250810190610f299190612226565b73ffffffffffffffffffffffffffffffffffffffff1614610f76576040517fb8f0d5d200000000000000000000000000000000000000000000000000000000815260040160405180910390fd5b600085815260208c90526040812054945091505b8382101561102657600085815260208c905260409020805483908110610fb257610fb26121f7565b9060005260206000200154925086831461101b5789600060018503815260200190815260200160002054611008898e6001870381548110610ff557610ff56121f7565b9060005260206000200154612710611415565b816110155761101561212f565b04890198505b816001019150610f8a565b600085815260208c90526040902087906110416001876121e0565b81548110611051576110516121f7565b9060005260206000200154141561108e5760408051602080820183528982526000888152908e905291909120611088916001611f9a565b506110a5565b600085815260208c9052604081206110a591611fe5565b600101610e73565b506110cd7332353a6c91143bfd6c7d363b546e62a9a2489a20338a611452565b604051889033907ffc30cddea38e2bf4d6ea7d3f9ed3b6ad7f176419f4963bd81318067a4aee73fe90600090a35050505050505050505050505050565b6000805473ffffffffffffffffffffffffffffffffffffffff8381167fffffffffffffffffffffffff0000000000000000000000000000000000000000831681178455604051919092169283917f8be0079c531659141344cd1fd0a4f28419497f9722a3daafe3b4186f6b6457e09190a35050565b6001546111b8576040517f6929bcec00000000000000000000000000000000000000000000000000000000815260040160405180910390fd5b60006111c2610a3b565b90507f0000000000000000000000000000000000000000000000000000000000000000811061121d576040517f12776a0700000000000000000000000000000000000000000000000000000000815260040160405180910390fd5b600061122a8260016121c8565b9050856000805b828110156113dc5789898281811061124b5761124b6121f7565b9050602002013591503373ffffffffffffffffffffffffffffffffffffffff168873ffffffffffffffffffffffffffffffffffffffff16636352211e846040518263ffffffff1660e01b81526004016112a691815260200190565b602060405180830381865afa1580156112c3573d6000803e3d6000fd5b505050506040513d601f19601f820116820180604052508101906112e79190612226565b73ffffffffffffffffffffffffffffffffffffffff1614611334576040517fb8f0d5d200000000000000000000000000000000000000000000000000000000815260040160405180910390fd5b60008481526020888152604080832085845290915290205460ff1615611386576040517f1b55f09500000000000000000000000000000000000000000000000000000000815260040160405180910390fd5b600084815260208781526040808320805460019081019091558a835281842086855290925290912080547fffffffffffffffffffffffffffffffffffffffffffffffffffffffffffffff00168217905501611231565b50604051829033907f448539cd40a6d245c3aa41918ccdbb7870043f5891dedd4222b14c3fca944b7890600090a3505050505050505050565b600061144a6114456114376114298761151f565b6114328761151f565b61158a565b6114408561151f565b6119ce565b611de6565b949350505050565b60006040517fa9059cbb00000000000000000000000000000000000000000000000000000000815273ffffffffffffffffffffffffffffffffffffffff841660048201528260248201526000806044836000895af19150506114b381611ea5565b611519576040517f08c379a000000000000000000000000000000000000000000000000000000000815260206004820152600f60248201527f5452414e534645525f4641494c454400000000000000000000000000000000006044820152606401610611565b50505050565b60008161152e57506000919050565b81600061153a82611eea565b90506070811015611553578060700382901b9150611566565b6070811115611566576070810382901c91505b613fff0160701b6dffffffffffffffffffffffffffff919091161760801b92915050565b6000617fff60f084811c8216919084901c81169082141561170a5780617fff141561168b577fffffffffffffffffffffffffffffffff000000000000000000000000000000008581169085161415611609575050507f80000000000000000000000000000000000000000000000000000000000000008116821861058e565b7f80000000000000000000000000000000000000000000000000000000000000007fffffffffffffffffffffffffffffffff000000000000000000000000000000008686181614156116605750505081811761058e565b507f7fff800000000000000000000000000000000000000000000000000000000000915061058e9050565b7f7fffffffffffffffffffffffffffffff0000000000000000000000000000000084166116dd57507f7fff800000000000000000000000000000000000000000000000000000000000915061058e9050565b5050507f80000000000000000000000000000000000000000000000000000000000000008116821861058e565b80617fff1415611793577f7fffffffffffffffffffffffffffffff00000000000000000000000000000000851661176657507f7fff800000000000000000000000000000000000000000000000000000000000915061058e9050565b5050507f80000000000000000000000000000000000000000000000000000000000000008216811861058e565b6dffffffffffffffffffffffffffff608086901c16826117b657600192506117c8565b6e010000000000000000000000000000175b6dffffffffffffffffffffffffffff608086901c16826117eb57600192506117fd565b6e010000000000000000000000000000175b9081029081611863577f800000000000000000000000000000000000000000000000000000000000000087871816611836576000611858565b7f80000000000000000000000000000000000000000000000000000000000000005b94505050505061058e565b9282019260007c02000000000000000000000000000000000000000000000000000000008310156118c8577c01000000000000000000000000000000000000000000000000000000008310156118c1576118bc83611eea565b6118cb565b60e06118cb565b60e15b905061407081860110156118e657600094506000925061198a565b6140e081860110156119295761407085101561190b57846140700383901c9250611920565b61407085111561192057614070850383901b92505b6000945061198a565b61c0dd818601111561194357617fff94506000925061198a565b607081111561195a576070810383901c925061196d565b607081101561196d578060700383901b92505b6dffffffffffffffffffffffffffff831692506140df8186010394505b82607086901b888a186f8000000000000000000000000000000060801b1660801c6fffffffffffffffffffffffffffffffff16171760801b9550505050505061058e565b6000617fff60f084811c8216919084901c811690821415611a1e5780617fff14156116dd57507f7fff800000000000000000000000000000000000000000000000000000000000915061058e9050565b80617fff1415611aa6577dffffffffffffffffffffffffffff00000000000000000000000000000000841615611a7957507f7fff800000000000000000000000000000000000000000000000000000000000915061058e9050565b5050508082187f80000000000000000000000000000000000000000000000000000000000000001661058e565b7f7fffffffffffffffffffffffffffffff000000000000000000000000000000008416611b6e577f7fffffffffffffffffffffffffffffff000000000000000000000000000000008516611b1f57507f7fff800000000000000000000000000000000000000000000000000000000000915061058e9050565b5050508082187f8000000000000000000000000000000000000000000000000000000000000000167f7fff0000000000000000000000000000000000000000000000000000000000001761058e565b6dffffffffffffffffffffffffffff608085901c1681611b915760019150611ba3565b6e010000000000000000000000000000175b6dffffffffffffffffffffffffffff608087901c1683611c07578015611c02576000611bce82611eea565b6001955060e2039384017fffffffffffffffffffffffffffffffffffffffffffffffffffffffffffffff8e01939190911b90505b611c1c565b6e0100000000000000000000000000001760721b5b818181611c2b57611c2b61212f565b04905080611c63577f800000000000000000000000000000000000000000000000000000000000000087871816611836576000611858565b6d1000000000000000000000000000811015611c8157611c81612243565b60006e080000000000000000000000000000821015611ce1576e040000000000000000000000000000821015611cd6576e020000000000000000000000000000821015611ccf576070611cd9565b6071611cd9565b60725b60ff16611cea565b611cea82611eea565b905083614071018186011115611d0857617fff945060009150611da2565b83818601613ffc011015611d23576000945060009150611da2565b83818601613f8c011015611d70578385613ffc011115611d4e578385613ffc010382901b9150611d67565b8385613ffc011015611d6757613ffc8585030382901c91505b60009450611da2565b6070811115611d83576070810382901c91505b6dffffffffffffffffffffffffffff8216915083818601613f8d010394505b81607086901b888a186f8000000000000000000000000000000060801b1660801c6fffffffffffffffffffffffffffffffff16171760801b9550505050505061058e565b6000617fff60f083901c16613fff811015611e045750600092915050565b6f80000000000000000000000000000000608084901c10611e2457600080fd5b6140fe811115611e3357600080fd5b6e0100000000000000000000000000006dffffffffffffffffffffffffffff608085901c161761406f821015611e6f5761406f8290031c611e9e565b61406f821115611e9e577fffffffffffffffffffffffffffffffffffffffffffffffffffffffffffffbf9182011b5b9392505050565b600081611eb6573d6000803e3d6000fd5b3d60208114611ece578015611edf5760009150611ee4565b3d6000803e60005115159150611ee4565b600191505b50919050565b6000808211611ef857600080fd5b60007001000000000000000000000000000000008310611f1a57608092831c92015b680100000000000000008310611f3257604092831c92015b6401000000008310611f4657602092831c92015b620100008310611f5857601092831c92015b6101008310611f6957600892831c92015b60108310611f7957600492831c92015b60048310611f8957600292831c92015b6002831061058e5760010192915050565b828054828255906000526020600020908101928215611fd5579160200282015b82811115611fd5578251825591602001919060010190611fba565b50611fe1929150611fff565b5090565b5080546000825590600052602060002090810190610d9e91905b5b80821115611fe15760008155600101612000565b6000806040838503121561202757600080fd5b50508035926020909101359150565b60006020828403121561204857600080fd5b5035919050565b6000806020838503121561206257600080fd5b823567ffffffffffffffff8082111561207a57600080fd5b818501915085601f83011261208e57600080fd5b81358181111561209d57600080fd5b8660208260051b85010111156120b257600080fd5b60209290920196919550909350505050565b6000806000606084860312156120d957600080fd5b505081359360208301359350604090920135919050565b73ffffffffffffffffffffffffffffffffffffffff81168114610d9e57600080fd5b60006020828403121561212457600080fd5b8135611e9e816120f0565b7f4e487b7100000000000000000000000000000000000000000000000000000000600052601260045260246000fd5b7f4e487b7100000000000000000000000000000000000000000000000000000000600052601160045260246000fd5b6000826121c3577f4e487b7100000000000000000000000000000000000000000000000000000000600052601260045260246000fd5b500490565b600082198211156121db576121db61215e565b500190565b6000828210156121f2576121f261215e565b500390565b7f4e487b7100000000000000000000000000000000000000000000000000000000600052603260045260246000fd5b60006020828403121561223857600080fd5b8151611e9e816120f0565b7f4e487b7100000000000000000000000000000000000000000000000000000000600052600160045260246000fdfea2646970667358221220435fce77830d88aa02f954b594aa82562f41227d93f9642c34183de3a882270364736f6c634300080a0033",
    "linkReferences": {}
  }
}