{
  "abi": [
    {
      "inputs": [],
      "stateMutability": "nonpayable",
      "type": "constructor"
    },
    {
      "anonymous": false,
      "inputs": [
        {
          "indexed": true,
          "internalType": "address",
          "name": "owner",
          "type": "address"
        },
        {
          "indexed": true,
          "internalType": "address",
          "name": "approved",
          "type": "address"
        },
        {
          "indexed": true,
          "internalType": "uint256",
          "name": "tokenId",
          "type": "uint256"
        }
      ],
      "name": "Approval",
      "type": "event"
    },
    {
      "anonymous": false,
      "inputs": [
        {
          "indexed": true,
          "internalType": "address",
          "name": "owner",
          "type": "address"
        },
        {
          "indexed": true,
          "internalType": "address",
          "name": "operator",
          "type": "address"
        },
        {
          "indexed": false,
          "internalType": "bool",
          "name": "approved",
          "type": "bool"
        }
      ],
      "name": "ApprovalForAll",
      "type": "event"
    },
    {
      "anonymous": false,
      "inputs": [
        {
          "indexed": true,
          "internalType": "address",
          "name": "previousOwner",
          "type": "address"
        },
        {
          "indexed": true,
          "internalType": "address",
          "name": "newOwner",
          "type": "address"
        }
      ],
      "name": "OwnershipTransferred",
      "type": "event"
    },
    {
      "anonymous": false,
      "inputs": [
        {
          "indexed": true,
          "internalType": "address",
          "name": "from",
          "type": "address"
        },
        {
          "indexed": true,
          "internalType": "address",
          "name": "to",
          "type": "address"
        },
        {
          "indexed": true,
          "internalType": "uint256",
          "name": "tokenId",
          "type": "uint256"
        }
      ],
      "name": "Transfer",
      "type": "event"
    },
    {
      "inputs": [
        {
          "internalType": "address",
          "name": "to",
          "type": "address"
        },
        {
          "internalType": "uint256",
          "name": "tokenId",
          "type": "uint256"
        }
      ],
      "name": "approve",
      "outputs": [],
      "stateMutability": "nonpayable",
      "type": "function"
    },
    {
      "inputs": [
        {
          "internalType": "address",
          "name": "owner",
          "type": "address"
        }
      ],
      "name": "balanceOf",
      "outputs": [
        {
          "internalType": "uint256",
          "name": "",
          "type": "uint256"
        }
      ],
      "stateMutability": "view",
      "type": "function"
    },
    {
      "inputs": [
        {
          "internalType": "uint256",
          "name": "tokenId",
          "type": "uint256"
        }
      ],
      "name": "claim",
      "outputs": [],
      "stateMutability": "nonpayable",
      "type": "function"
    },
    {
      "inputs": [
        {
          "internalType": "uint256",
          "name": "tokenId",
          "type": "uint256"
        }
      ],
      "name": "getApproved",
      "outputs": [
        {
          "internalType": "address",
          "name": "",
          "type": "address"
        }
      ],
      "stateMutability": "view",
      "type": "function"
    },
    {
      "inputs": [
        {
          "internalType": "uint256",
          "name": "tokenId",
          "type": "uint256"
        }
      ],
      "name": "getChest",
      "outputs": [
        {
          "internalType": "string",
          "name": "",
          "type": "string"
        }
      ],
      "stateMutability": "view",
      "type": "function"
    },
    {
      "inputs": [
        {
          "internalType": "uint256",
          "name": "tokenId",
          "type": "uint256"
        }
      ],
      "name": "getFoot",
      "outputs": [
        {
          "internalType": "string",
          "name": "",
          "type": "string"
        }
      ],
      "stateMutability": "view",
      "type": "function"
    },
    {
      "inputs": [
        {
          "internalType": "uint256",
          "name": "tokenId",
          "type": "uint256"
        }
      ],
      "name": "getHand",
      "outputs": [
        {
          "internalType": "string",
          "name": "",
          "type": "string"
        }
      ],
      "stateMutability": "view",
      "type": "function"
    },
    {
      "inputs": [
        {
          "internalType": "uint256",
          "name": "tokenId",
          "type": "uint256"
        }
      ],
      "name": "getHead",
      "outputs": [
        {
          "internalType": "string",
          "name": "",
          "type": "string"
        }
      ],
      "stateMutability": "view",
      "type": "function"
    },
    {
      "inputs": [
        {
          "internalType": "uint256",
          "name": "tokenId",
          "type": "uint256"
        }
      ],
      "name": "getNeck",
      "outputs": [
        {
          "internalType": "string",
          "name": "",
          "type": "string"
        }
      ],
      "stateMutability": "view",
      "type": "function"
    },
    {
      "inputs": [
        {
          "internalType": "uint256",
          "name": "tokenId",
          "type": "uint256"
        }
      ],
      "name": "getRing",
      "outputs": [
        {
          "internalType": "string",
          "name": "",
          "type": "string"
        }
      ],
      "stateMutability": "view",
      "type": "function"
    },
    {
      "inputs": [
        {
          "internalType": "uint256",
          "name": "tokenId",
          "type": "uint256"
        }
      ],
      "name": "getWaist",
      "outputs": [
        {
          "internalType": "string",
          "name": "",
          "type": "string"
        }
      ],
      "stateMutability": "view",
      "type": "function"
    },
    {
      "inputs": [
        {
          "internalType": "uint256",
          "name": "tokenId",
          "type": "uint256"
        }
      ],
      "name": "getWeapon",
      "outputs": [
        {
          "internalType": "string",
          "name": "",
          "type": "string"
        }
      ],
      "stateMutability": "view",
      "type": "function"
    },
    {
      "inputs": [
        {
          "internalType": "address",
          "name": "owner",
          "type": "address"
        },
        {
          "internalType": "address",
          "name": "operator",
          "type": "address"
        }
      ],
      "name": "isApprovedForAll",
      "outputs": [
        {
          "internalType": "bool",
          "name": "",
          "type": "bool"
        }
      ],
      "stateMutability": "view",
      "type": "function"
    },
    {
      "inputs": [],
      "name": "name",
      "outputs": [
        {
          "internalType": "string",
          "name": "",
          "type": "string"
        }
      ],
      "stateMutability": "view",
      "type": "function"
    },
    {
      "inputs": [],
      "name": "owner",
      "outputs": [
        {
          "internalType": "address",
          "name": "",
          "type": "address"
        }
      ],
      "stateMutability": "view",
      "type": "function"
    },
    {
      "inputs": [
        {
          "internalType": "uint256",
          "name": "tokenId",
          "type": "uint256"
        }
      ],
      "name": "ownerClaim",
      "outputs": [],
      "stateMutability": "nonpayable",
      "type": "function"
    },
    {
      "inputs": [
        {
          "internalType": "uint256",
          "name": "tokenId",
          "type": "uint256"
        }
      ],
      "name": "ownerOf",
      "outputs": [
        {
          "internalType": "address",
          "name": "",
          "type": "address"
        }
      ],
      "stateMutability": "view",
      "type": "function"
    },
    {
      "inputs": [],
      "name": "renounceOwnership",
      "outputs": [],
      "stateMutability": "nonpayable",
      "type": "function"
    },
    {
      "inputs": [
        {
          "internalType": "address",
          "name": "from",
          "type": "address"
        },
        {
          "internalType": "address",
          "name": "to",
          "type": "address"
        },
        {
          "internalType": "uint256",
          "name": "tokenId",
          "type": "uint256"
        }
      ],
      "name": "safeTransferFrom",
      "outputs": [],
      "stateMutability": "nonpayable",
      "type": "function"
    },
    {
      "inputs": [
        {
          "internalType": "address",
          "name": "from",
          "type": "address"
        },
        {
          "internalType": "address",
          "name": "to",
          "type": "address"
        },
        {
          "internalType": "uint256",
          "name": "tokenId",
          "type": "uint256"
        },
        {
          "internalType": "bytes",
          "name": "_data",
          "type": "bytes"
        }
      ],
      "name": "safeTransferFrom",
      "outputs": [],
      "stateMutability": "nonpayable",
      "type": "function"
    },
    {
      "inputs": [
        {
          "internalType": "address",
          "name": "operator",
          "type": "address"
        },
        {
          "internalType": "bool",
          "name": "approved",
          "type": "bool"
        }
      ],
      "name": "setApprovalForAll",
      "outputs": [],
      "stateMutability": "nonpayable",
      "type": "function"
    },
    {
      "inputs": [
        {
          "internalType": "bytes4",
          "name": "interfaceId",
          "type": "bytes4"
        }
      ],
      "name": "supportsInterface",
      "outputs": [
        {
          "internalType": "bool",
          "name": "",
          "type": "bool"
        }
      ],
      "stateMutability": "view",
      "type": "function"
    },
    {
      "inputs": [],
      "name": "symbol",
      "outputs": [
        {
          "internalType": "string",
          "name": "",
          "type": "string"
        }
      ],
      "stateMutability": "view",
      "type": "function"
    },
    {
      "inputs": [
        {
          "internalType": "uint256",
          "name": "index",
          "type": "uint256"
        }
      ],
      "name": "tokenByIndex",
      "outputs": [
        {
          "internalType": "uint256",
          "name": "",
          "type": "uint256"
        }
      ],
      "stateMutability": "view",
      "type": "function"
    },
    {
      "inputs": [
        {
          "internalType": "address",
          "name": "owner",
          "type": "address"
        },
        {
          "internalType": "uint256",
          "name": "index",
          "type": "uint256"
        }
      ],
      "name": "tokenOfOwnerByIndex",
      "outputs": [
        {
          "internalType": "uint256",
          "name": "",
          "type": "uint256"
        }
      ],
      "stateMutability": "view",
      "type": "function"
    },
    {
      "inputs": [
        {
          "internalType": "uint256",
          "name": "tokenId",
          "type": "uint256"
        }
      ],
      "name": "tokenURI",
      "outputs": [
        {
          "internalType": "string",
          "name": "",
          "type": "string"
        }
      ],
      "stateMutability": "view",
      "type": "function"
    },
    {
      "inputs": [],
      "name": "totalSupply",
      "outputs": [
        {
          "internalType": "uint256",
          "name": "",
          "type": "uint256"
        }
      ],
      "stateMutability": "view",
      "type": "function"
    },
    {
      "inputs": [
        {
          "internalType": "address",
          "name": "from",
          "type": "address"
        },
        {
          "internalType": "address",
          "name": "to",
          "type": "address"
        },
        {
          "internalType": "uint256",
          "name": "tokenId",
          "type": "uint256"
        }
      ],
      "name": "transferFrom",
      "outputs": [],
      "stateMutability": "nonpayable",
      "type": "function"
    },
    {
      "inputs": [
        {
          "internalType": "address",
          "name": "newOwner",
          "type": "address"
        }
      ],
      "name": "transferOwnership",
      "outputs": [],
      "stateMutability": "nonpayable",
      "type": "function"
    }
  ],
  "bytecode": {
    "object": "0x60096102c0818152682bb0b93430b6b6b2b960b91b6102e0526080908152600c6103008181526b28bab0b93a32b939ba30b33360a11b6103205260a05260046103408181526313585d5b60e21b6103605260c052610380818152634d61636560e01b6103a05260e0526103c08181526321b63ab160e11b6103e052610100526006610400908152654b6174616e6160d01b61042052610120526008610440818152672330b631b434b7b760c11b61046052610140526104808181526729b1b4b6b4ba30b960c11b6104a05261016052600a6104c081815269131bdb99c814dddbdc9960b21b6104e05261018052600b6105009081526a14da1bdc9d0814dddbdc9960aa1b610520526101a0526105408181526911da1bdcdd0815d85b9960b21b610560526101c0526105809081526911dc985d994815d85b9960b21b6105a0526101e0526105c085815268109bdb994815d85b9960ba1b6105e052610200526106008281526315d85b9960e21b6106205261022052610640908152674772696d6f69726560c01b6106605261024052610680938452684368726f6e69636c6560b81b6106a052610260939093526106c083815263546f6d6560e01b6106e0526102805261074060405261070092835263426f6f6b60e01b610720526102a092909252620001ef9190601262001d24565b506040805161022081018252600b6101e082019081526a446976696e6520526f626560a81b61020083015281528151808301835260098082526853696c6b20526f626560b81b6020838101919091528084019290925283518085018552600a808252694c696e656e20526f626560b01b8285015284860191909152845180860186526004815263526f626560e01b81850152606085015284518086018652600581526414da1a5c9d60da1b818501526080850152845180860186528181526944656d6f6e204875736b60b01b8185015260a085015284518086018652601081526f223930b3b7b739b5b4b71020b936b7b960811b8185015260c085015284518086018652601581527f53747564646564204c6561746865722041726d6f7200000000000000000000008185015260e08501528451808601865260128152712430b932102632b0ba3432b91020b936b7b960711b8185015261010085015284518086018652600d8082526c2632b0ba3432b91020b936b7b960991b8286015261012086019190915285518087018752600f8082526e486f6c79204368657374706c61746560881b828701526101408701919091528651808801885260118152704f726e617465204368657374706c61746560781b818701526101608701528651808801885283815269141b185d194813585a5b60b21b81870152610180870152865180880188529283526910da185a5b8813585a5b60b21b838601526101a0860192909252855180870190965291855268149a5b99c813585a5b60ba1b928501929092526101c08301939093526200044892919062001d88565b50604051806101e001604052806040518060400160405280600c81526020016b416e6369656e742048656c6d60a01b81525081526020016040518060400160405280600b81526020016a4f726e6174652048656c6d60a81b81525081526020016040518060400160405280600a81526020016947726561742048656c6d60b01b81525081526020016040518060400160405280600981526020016846756c6c2048656c6d60b81b81525081526020016040518060400160405280600481526020016348656c6d60e01b81525081526020016040518060400160405280600b81526020016a2232b6b7b71021b937bbb760a91b81525081526020016040518060400160405280600e81526020016d223930b3b7b713b99021b937bbb760911b8152508152602001604051806040016040528060078152602001660576172204361760cc1b81525081526020016040518060400160405280600b81526020016a04c656174686572204361760ac1b81525081526020016040518060400160405280600381526020016204361760ec1b81525081526020016040518060400160405280600581526020016421b937bbb760d91b81525081526020016040518060400160405280600b81526020016a111a5d9a5b9948121bdbd960aa1b81525081526020016040518060400160405280600981526020016814da5b1ac8121bdbd960ba1b81525081526020016040518060400160405280600a815260200169131a5b995b88121bdbd960b21b815250815260200160405180604001604052806004815260200163121bdbd960e21b815250815250600e90600f620006aa92919062001d88565b506040805161022081018252600b6101e082018181526a13dc9b985d194810995b1d60aa1b610200840152825282518084018452600881526715d85c8810995b1d60c21b60208281019190915280840191909152835180850185529182526a141b185d19590810995b1d60aa1b82820152828401919091528251808401845260098082526813595cda0810995b1d60ba1b82840152606084019190915283518085018552600a808252691219585d9e4810995b1d60b21b82850152608085019190915284518086018652600e81526d11195b5bdb9a1a59194810995b1d60921b8185015260a085015284518086018652600f8082526e111c9859dbdb9cdada5b8810995b1d608a1b8286015260c086019190915285518087018752601481527f53747564646564204c6561746865722042656c740000000000000000000000008186015260e086015285518087018752601181527012185c99081319585d1a195c8810995b1d607a1b8186015261010086015285518087018752600c81526b1319585d1a195c8810995b1d60a21b81860152610120860152855180870187528181526e084e4d2ced0e8e6d2d8d640a6c2e6d608b1b8186015261014086015285518087018752838152680a6d2d8d640a6c2e6d60bb1b8186015261016086015285518087018752928352680aededed840a6c2e6d60bb1b838501526101808501929092528451808601865290815269098d2dccadc40a6c2e6d60b31b818401526101a0840152835180850190945260048452630a6c2e6d60e31b918401919091526101c08201929092526200090191908162001d88565b506040805161022081018252600c6101e082019081526b486f6c79204772656176657360a01b610200830152815281518083018352600e81526d4f726e617465204772656176657360901b602082810191909152808301919091528251808401845260078152664772656176657360c81b818301528284015282518084018452600b8082526a436861696e20426f6f747360a81b828401526060840191909152835180850185528181526a486561767920426f6f747360a81b81840152608084015283518085018552600f8082526e44656d6f6e6869646520426f6f747360881b8285015260a08501919091528451808601865260108082526f447261676f6e736b696e20426f6f747360801b8286015260c086019190915285518087018752601581527f53747564646564204c65617468657220426f6f747300000000000000000000008186015260e086015285518087018752601281527148617264204c65617468657220426f6f747360701b8186015261010086015285518087018752600d8082526c4c65617468657220426f6f747360981b82870152610120870191909152865180880188528381526e446976696e6520536c69707065727360881b81870152610140870152865180880188529081526c53696c6b20536c69707065727360981b8186015261016086015285518087018752600a815269576f6f6c2053686f657360b01b81860152610180860152855180870187529283526a4c696e656e2053686f657360a81b838501526101a08501929092528451808601909552600585526453686f657360d81b928501929092526101c083019390935262000b6b92919062001d88565b506040805161022081018252600e6101e082018181526d486f6c79204761756e746c65747360901b610200840152825282518084018452601081526f4f726e617465204761756e746c65747360801b602082810191909152808401919091528351808501855260098152684761756e746c65747360b81b818301528385015283518085018552600c8082526b436861696e20476c6f76657360a01b828401526060850191909152845180860186528181526b486561767920476c6f76657360a01b81840152608085015284518086018652600d8082526c44656d6f6e27732048616e647360981b8285015260a086019190915285518087018752601180825270447261676f6e736b696e20476c6f76657360781b8286015260c087019190915286518088018852601681527f53747564646564204c65617468657220476c6f766573000000000000000000008186015260e087015286518088018852601381527f48617264204c65617468657220476c6f7665730000000000000000000000000081860152610100870152865180880188529485526d4c65617468657220476c6f76657360901b85850152610120860194909452855180870187529081526c446976696e6520476c6f76657360981b8184015261014085015284518086018652600b8082526a53696c6b20476c6f76657360a81b82850152610160860191909152855180870187529081526a576f6f6c20476c6f76657360a81b81840152610180850152845180860186529081526b4c696e656e20476c6f76657360a01b818301526101a084015283518085019094526006845265476c6f76657360d01b908401526101c082019290925262000de49190600f62001d88565b506040518060600160405280604051806040016040528060088152602001674e65636b6c61636560c01b815250815260200160405180604001604052806006815260200165105b5d5b195d60d21b81525081526020016040518060400160405280600781526020016614195b99185b9d60ca1b815250815250601290600362000e6f92919062001dda565b506040805160e081018252600960a0820190815268476f6c642052696e6760b81b60c0830152815281518083018352600b8082526a53696c7665722052696e6760a81b60208381019190915280840192909252835180850185529081526a42726f6e7a652052696e6760a81b818301528284015282518084018452600d8082526c506c6174696e756d2052696e6760981b828401526060840191909152835180850190945283526c546974616e69756d2052696e6760981b90830152608081019190915262000f4390601390600562001e2c565b506040805161024081018252600861020082018181526737b3102837bbb2b960c11b6102208401528252825180840184526009808252686f66204769616e747360b81b6020838101919091528085019290925284518086018652908152686f6620546974616e7360b81b818301528385015283518085018552828152671bd98814dada5b1b60c21b81830152606084015283518085018552600d8082526c37b3102832b93332b1ba34b7b760991b828401526080850191909152845180860186528181526c6f66204272696c6c69616e636560981b8184015260a08501528451808601865260108082526f1bd988115b9b1a59da1d195b9b595b9d60821b8285015260c0860191909152855180870187528281526c37b310283937ba32b1ba34b7b760991b8185015260e0860152855180870187529384526737b31020b733b2b960c11b84840152610100850193909352845180860186526007808252666f66205261676560c81b8285015261012086019190915285518087018752908152666f66204675727960c81b8184015261014085015284518086018652600a808252691bd988159a5d1c9a5bdb60b21b8285015261016086019190915285518087018752908152690decc40e8d0ca408cdef60b31b8184015261018085015284518086018652600c8082526b37b3102232ba32b1ba34b7b760a11b828501526101a0860191909152855180870187529182526c37b3102932b33632b1ba34b7b760991b828401526101c0850191909152845180860190955284526b6f6620746865205477696e7360a01b908401526101e0820192909252620011a7916014919062001e7e565b50604080516108e08101825260056108a082018181526441676f6e7960d81b6108c0840152825282518084018452600a8082526941706f63616c7970736560b01b60208381019190915280850192909252845180860186528181526920b936b0b3b2b23237b760b11b818401528486015284518086018652838152641099585cdd60da1b81840152606085015284518086018652600880825267084cad0cadadee8d60c31b82850152608086019190915285518087018752600680825265109b1a59da1d60d21b8286015260a08701919091528651808801885285815264109b1bdbd960da1b8186015260c0870152865180880188526007808252664272616d626c6560c81b8287015260e0880191909152875180890189526009808252684272696d73746f6e6560b81b828801526101008901919091528851808a018a5287815264109c9bdbd960da1b818801526101208901528851808a018a528281526621b0b93934b7b760c91b818801526101408901528851808a018a528181526843617461636c79736d60b81b818801526101608901528851808a018a52848152674368696d6572696360c01b818801526101808901528851808a018a5283815265436f7270736560d01b818801526101a08901528851808a018a528581526921b7b9393ab83a34b7b760b11b818801526101c08901528851808a018a52818152682230b6b730ba34b7b760b91b818801526101e08901528851808a018a5287815264088cac2e8d60db1b818801526102008901528851808a018a52878152642232b6b7b760d91b818801526102208901528851808a018a526004808252634469726560e01b828901526102408a01919091528951808b018b5284815265223930b3b7b760d11b818901526102608a01528951808b018b5288815264111c99585960da1b818901526102808a01528951808b018b5281815263446f6f6d60e01b818901526102a08a01528951808b018b52818152634475736b60e01b818901526102c08a01528951808b018b52888152644561676c6560d81b818901526102e08a01528951808b018b528581526722b6b83cb932b0b760c11b818901526103008a01528951808b018b52818152634661746560e01b818901526103208a01528951808b018b52600380825262466f6560e81b828a01526103408b01919091528a51808c018c528281526347616c6560e01b818a01526103608b01528a51808c018c528981526411da1bdd5b60da1b818a01526103808b01528a51808c018c5289815264476c6f6f6d60d81b818a01526103a08b01528a51808c018c528981526408ed8f2e0d60db1b818a01526103c08b01528a51808c018c5289815264476f6c656d60d81b818a01526103e08b01528a51808c018c52828152634772696d60e01b818a01526104008b01528a51808c018c52828152634861746560e01b818a01526104208b01528a51808c018c52898152644861766f6360d81b818a01526104408b01528a51808c018c52858152652437b737bab960d11b818a01526104608b01528a51808c018c52858152652437b93937b960d11b818a01526104808b01528a51808c018c52868152674879706e6f74696360c01b818a01526104a08b01528a51808c018c528581526525b930b5b2b760d11b818a01526104c08b01528a51808c018c5289815264098dec2e8d60db1b818a01526104e08b01528a51808c018c52838152684d61656c7374726f6d60b81b818a01526105008b01528a51808c018c5282815263135a5b9960e21b818a01526105208b01528a51808c018c52848152664d697261636c6560c81b818a01526105408b01528a51808c018c5285815265135bdc989a5960d21b818a01526105608b01528a51808c018c529586526727b13634bb34b7b760c11b868901526105808a01959095528951808b018b528281526813db9cdb185d59da1d60ba1b818901526105a08a01528951808b018b52818152632830b4b760e11b818901526105c08a01528951808b018b52600b81526a50616e64656d6f6e69756d60a81b818901526105e08a01528951808b018b52838152660a0d0decadcd2f60cb1b818901526106008a01528951808b018b5284815265506c6167756560d01b818901526106208a01528951808b018b52818152635261676560e01b818901526106408a01528951808b018b52838152665261707475726560c81b818901526106608a01528951808b018b528181526352756e6560e01b818901526106808a01528951808b018b528881526414dadd5b1b60da1b818901526106a08a01528951808b018b528581526214dbdb60ea1b818901526106c08a01528951808b018b529081526314dbdd5b60e21b818801526106e08901528851808a018a5283815265536f72726f7760d01b818801526107008901528851808a018a528381526514dc1a5c9a5d60d21b818801526107208901528851808a018a528781526453746f726d60d81b818801526107408901528851808a018a528281526615195b5c195cdd60ca1b818801526107608901528851808a018a5282815266151bdc9b595b9d60ca1b818801526107808901528851808a018a529081526856656e6765616e636560b81b818701526107a08801528751808901895281815266566963746f727960c81b818701526107c088015287518089018952868152642b34b832b960d91b818701526107e088015287518089018952918252650acdee4e8caf60d31b828601526108008701919091528651808801885291825262576f6560e81b8285015261082086019190915285518087018752938452640aee4c2e8d60db1b8484015261084085019390935284518086018652928352664c69676874277360c81b838301526108608401929092528351808501909452908352695368696d6d6572696e6760b01b9083015261088081019190915262001a1190601590604562001ed0565b506040805161028081018252600461024082018181526342616e6560e01b61026084015282528251808401845281815263149bdbdd60e21b6020828101919091528084019190915283518085018552828152634269746560e01b81830152838501528351808501855282815263536f6e6760e01b81830152606084015283518085018552828152632937b0b960e11b81830152608084015283518085018552600580825264047726173760dc1b8284015260a085019190915284518086018652600a815269125b9cdd1c9d5b595b9d60b21b8184015260c08501528451808601865283815263476c6f7760e01b8184015260e0850152845180860186526006808252652132b73232b960d11b828501526101008601919091528551808701875290815265536861646f7760d01b818401526101208501528451808601865260078152662bb434b9b832b960c91b81840152610140850152845180860186528181526414da1bdd5d60da1b81840152610160850152845180860186529081526411dc9bdddb60da1b8183015261018084015283518085018552828152632a32b0b960e11b818301526101a084015283518085018552828152635065616b60e01b818301526101c08401528351808501855282815263466f726d60e01b818301526101e084015283518085018552600381526229bab760e91b8183015261020084015283518085019094529083526326b7b7b760e11b9083015261022081019190915262001c4290601690601262001d24565b5034801562001c5057600080fd5b5060405180604001604052806004815260200163131bdbdd60e21b815250604051806040016040528060048152602001631313d3d560e21b815250816000908051906020019062001ca392919062001f22565b50805162001cb990600190602084019062001f22565b50506001600a555062001ccc3362001cd2565b62002064565b600b80546001600160a01b038381166001600160a01b0319831681179093556040519116919082907f8be0079c531659141344cd1fd0a4f28419497f9722a3daafe3b4186f6b6457e090600090a35050565b82805482825590600052602060002090810192821562001d76579160200282015b8281111562001d76578251805162001d6591849160209091019062001f22565b509160200191906001019062001d45565b5062001d8492915062001fad565b5090565b82805482825590600052602060002090810192821562001d76579160200282015b8281111562001d76578251805162001dc991849160209091019062001f22565b509160200191906001019062001da9565b82805482825590600052602060002090810192821562001d76579160200282015b8281111562001d76578251805162001e1b91849160209091019062001f22565b509160200191906001019062001dfb565b82805482825590600052602060002090810192821562001d76579160200282015b8281111562001d76578251805162001e6d91849160209091019062001f22565b509160200191906001019062001e4d565b82805482825590600052602060002090810192821562001d76579160200282015b8281111562001d76578251805162001ebf91849160209091019062001f22565b509160200191906001019062001e9f565b82805482825590600052602060002090810192821562001d76579160200282015b8281111562001d76578251805162001f1191849160209091019062001f22565b509160200191906001019062001ef1565b82805462001f309062002027565b90600052602060002090601f01602090048101928262001f54576000855562001f9f565b82601f1062001f6f57805160ff191683800117855562001f9f565b8280016001018555821562001f9f579182015b8281111562001f9f57825182559160200191906001019062001f82565b5062001d8492915062001fce565b8082111562001d8457600062001fc4828262001fe5565b5060010162001fad565b5b8082111562001d84576000815560010162001fcf565b50805462001ff39062002027565b6000825580601f1062002004575050565b601f01602090049060005260206000209081019062002024919062001fce565b50565b600181811c908216806200203c57607f821691505b602082108114156200205e57634e487b7160e01b600052602260045260246000fd5b50919050565b613c6780620020746000396000f3fe608060405234801561001057600080fd5b50600436106101cf5760003560e01c806370a0823111610104578063a22cb465116100a2578063d47f269e11610071578063d47f269e146103e1578063e985e9c5146103f4578063ef68075a1461043d578063f2fde38b1461045057600080fd5b8063a22cb46514610395578063b88d4fde146103a8578063c08a5dd5146103bb578063c87b56dd146103ce57600080fd5b806395d89b41116100de57806395d89b41146103545780639720c9691461035c5780639bdc1b691461036f5780639e41b73f1461038257600080fd5b806370a082311461031b578063715018a61461032e5780638da5cb5b1461033657600080fd5b80632f745c5911610171578063434f48c41161014b578063434f48c4146102cf5780634f6ccce7146102e25780636352211e146102f557806367209aa81461030857600080fd5b80632f745c5914610296578063379607f5146102a957806342842e0e146102bc57600080fd5b8063095ea7b3116101ad578063095ea7b3146102495780630e99990d1461025e57806318160ddd1461027157806323b872dd1461028357600080fd5b806301ffc9a7146101d457806306fdde03146101fc578063081812fc14610211575b600080fd5b6101e76101e2366004612ec1565b610463565b60405190151581526020015b60405180910390f35b6102046104bf565b6040516101f39190612f5b565b61022461021f366004612f6e565b610551565b60405173ffffffffffffffffffffffffffffffffffffffff90911681526020016101f3565b61025c610257366004612fb0565b610616565b005b61020461026c366004612f6e565b61076f565b6008545b6040519081526020016101f3565b61025c610291366004612fda565b610882565b6102756102a4366004612fb0565b610909565b61025c6102b7366004612f6e565b6109be565b61025c6102ca366004612fda565b610a85565b61025c6102dd366004612f6e565b610aa0565b6102756102f0366004612f6e565b610bdf565b610224610303366004612f6e565b610c83565b610204610316366004612f6e565b610d1b565b610275610329366004613016565b610e25565b61025c610ed9565b600b5473ffffffffffffffffffffffffffffffffffffffff16610224565b610204610f4c565b61020461036a366004612f6e565b610f5b565b61020461037d366004612f6e565b611065565b610204610390366004612f6e565b61116f565b61025c6103a3366004613031565b611279565b61025c6103b636600461309c565b611288565b6102046103c9366004612f6e565b611316565b6102046103dc366004612f6e565b611420565b6102046103ef366004612f6e565b611714565b6101e7610402366004613196565b73ffffffffffffffffffffffffffffffffffffffff918216600090815260056020908152604080832093909416825291909152205460ff1690565b61020461044b366004612f6e565b61181e565b61025c61045e366004613016565b611928565b60007fffffffff0000000000000000000000000000000000000000000000000000000082167f780e9d630000000000000000000000000000000000000000000000000000000014806104b957506104b982611a24565b92915050565b6060600080546104ce906131c9565b80601f01602080910402602001604051908101604052809291908181526020018280546104fa906131c9565b80156105475780601f1061051c57610100808354040283529160200191610547565b820191906000526020600020905b81548152906001019060200180831161052a57829003601f168201915b5050505050905090565b60008181526002602052604081205473ffffffffffffffffffffffffffffffffffffffff166105ed5760405162461bcd60e51b815260206004820152602c60248201527f4552433732313a20617070726f76656420717565727920666f72206e6f6e657860448201527f697374656e7420746f6b656e000000000000000000000000000000000000000060648201526084015b60405180910390fd5b5060009081526004602052604090205473ffffffffffffffffffffffffffffffffffffffff1690565b600061062182610c83565b90508073ffffffffffffffffffffffffffffffffffffffff168373ffffffffffffffffffffffffffffffffffffffff1614156106c55760405162461bcd60e51b815260206004820152602160248201527f4552433732313a20617070726f76616c20746f2063757272656e74206f776e6560448201527f720000000000000000000000000000000000000000000000000000000000000060648201526084016105e4565b3373ffffffffffffffffffffffffffffffffffffffff821614806106ee57506106ee8133610402565b6107605760405162461bcd60e51b815260206004820152603860248201527f4552433732313a20617070726f76652063616c6c6572206973206e6f74206f7760448201527f6e6572206e6f7220617070726f76656420666f7220616c6c000000000000000060648201526084016105e4565b61076a8383611b07565b505050565b60606104b9826040518060400160405280600481526020017f464f4f54000000000000000000000000000000000000000000000000000000008152506010805480602002602001604051908101604052809291908181526020016000905b828210156108795783829060005260206000200180546107ec906131c9565b80601f0160208091040260200160405190810160405280929190818152602001828054610818906131c9565b80156108655780601f1061083a57610100808354040283529160200191610865565b820191906000526020600020905b81548152906001019060200180831161084857829003601f168201915b5050505050815260200190600101906107cd565b50505050611ba7565b61088c3382611e80565b6108fe5760405162461bcd60e51b815260206004820152603160248201527f4552433732313a207472616e736665722063616c6c6572206973206e6f74206f60448201527f776e6572206e6f7220617070726f76656400000000000000000000000000000060648201526084016105e4565b61076a838383611fd6565b600061091483610e25565b82106109885760405162461bcd60e51b815260206004820152602b60248201527f455243373231456e756d657261626c653a206f776e657220696e646578206f7560448201527f74206f6620626f756e647300000000000000000000000000000000000000000060648201526084016105e4565b5073ffffffffffffffffffffffffffffffffffffffff919091166000908152600660209081526040808320938352929052205490565b6002600a541415610a115760405162461bcd60e51b815260206004820152601f60248201527f5265656e7472616e637947756172643a207265656e7472616e742063616c6c0060448201526064016105e4565b6002600a558015801590610a265750611e6281105b610a725760405162461bcd60e51b815260206004820152601060248201527f546f6b656e20494420696e76616c69640000000000000000000000000000000060448201526064016105e4565b610a7d335b82612214565b506001600a55565b61076a83838360405180602001604052806000815250611288565b6002600a541415610af35760405162461bcd60e51b815260206004820152601f60248201527f5265656e7472616e637947756172643a207265656e7472616e742063616c6c0060448201526064016105e4565b6002600a55600b5473ffffffffffffffffffffffffffffffffffffffff163314610b5f5760405162461bcd60e51b815260206004820181905260248201527f4f776e61626c653a2063616c6c6572206973206e6f7420746865206f776e657260448201526064016105e4565b611e6181118015610b715750611f4181105b610bbd5760405162461bcd60e51b815260206004820152601060248201527f546f6b656e20494420696e76616c69640000000000000000000000000000000060448201526064016105e4565b610a7d610a77600b5473ffffffffffffffffffffffffffffffffffffffff1690565b6000610bea60085490565b8210610c5e5760405162461bcd60e51b815260206004820152602c60248201527f455243373231456e756d657261626c653a20676c6f62616c20696e646578206f60448201527f7574206f6620626f756e6473000000000000000000000000000000000000000060648201526084016105e4565b60088281548110610c7157610c7161321d565b90600052602060002001549050919050565b60008181526002602052604081205473ffffffffffffffffffffffffffffffffffffffff16806104b95760405162461bcd60e51b815260206004820152602960248201527f4552433732313a206f776e657220717565727920666f72206e6f6e657869737460448201527f656e7420746f6b656e000000000000000000000000000000000000000000000060648201526084016105e4565b60606104b9826040518060400160405280600481526020017f4e45434b000000000000000000000000000000000000000000000000000000008152506012805480602002602001604051908101604052809291908181526020016000905b82821015610879578382906000526020600020018054610d98906131c9565b80601f0160208091040260200160405190810160405280929190818152602001828054610dc4906131c9565b8015610e115780601f10610de657610100808354040283529160200191610e11565b820191906000526020600020905b815481529060010190602001808311610df457829003601f168201915b505050505081526020019060010190610d79565b600073ffffffffffffffffffffffffffffffffffffffff8216610eb05760405162461bcd60e51b815260206004820152602a60248201527f4552433732313a2062616c616e636520717565727920666f7220746865207a6560448201527f726f20616464726573730000000000000000000000000000000000000000000060648201526084016105e4565b5073ffffffffffffffffffffffffffffffffffffffff1660009081526003602052604090205490565b600b5473ffffffffffffffffffffffffffffffffffffffff163314610f405760405162461bcd60e51b815260206004820181905260248201527f4f776e61626c653a2063616c6c6572206973206e6f7420746865206f776e657260448201526064016105e4565b610f4a600061222e565b565b6060600180546104ce906131c9565b60606104b9826040518060400160405280600481526020017f4845414400000000000000000000000000000000000000000000000000000000815250600e805480602002602001604051908101604052809291908181526020016000905b82821015610879578382906000526020600020018054610fd8906131c9565b80601f0160208091040260200160405190810160405280929190818152602001828054611004906131c9565b80156110515780601f1061102657610100808354040283529160200191611051565b820191906000526020600020905b81548152906001019060200180831161103457829003601f168201915b505050505081526020019060010190610fb9565b60606104b9826040518060400160405280600581526020017f5741495354000000000000000000000000000000000000000000000000000000815250600f805480602002602001604051908101604052809291908181526020016000905b828210156108795783829060005260206000200180546110e2906131c9565b80601f016020809104026020016040519081016040528092919081815260200182805461110e906131c9565b801561115b5780601f106111305761010080835404028352916020019161115b565b820191906000526020600020905b81548152906001019060200180831161113e57829003601f168201915b5050505050815260200190600101906110c3565b60606104b9826040518060400160405280600681526020017f574541504f4e0000000000000000000000000000000000000000000000000000815250600c805480602002602001604051908101604052809291908181526020016000905b828210156108795783829060005260206000200180546111ec906131c9565b80601f0160208091040260200160405190810160405280929190818152602001828054611218906131c9565b80156112655780601f1061123a57610100808354040283529160200191611265565b820191906000526020600020905b81548152906001019060200180831161124857829003601f168201915b5050505050815260200190600101906111cd565b6112843383836122a5565b5050565b6112923383611e80565b6113045760405162461bcd60e51b815260206004820152603160248201527f4552433732313a207472616e736665722063616c6c6572206973206e6f74206f60448201527f776e6572206e6f7220617070726f76656400000000000000000000000000000060648201526084016105e4565b611310848484846123b9565b50505050565b60606104b9826040518060400160405280600481526020017f52494e47000000000000000000000000000000000000000000000000000000008152506013805480602002602001604051908101604052809291908181526020016000905b82821015610879578382906000526020600020018054611393906131c9565b80601f01602080910402602001604051908101604052809291908181526020018280546113bf906131c9565b801561140c5780601f106113e15761010080835404028352916020019161140c565b820191906000526020600020905b8154815290600101906020018083116113ef57829003601f168201915b505050505081526020019060010190611374565b606061142a612e52565b60405180610120016040528060fd8152602001613aa460fd9139815261144f8361116f565b8160016020020181905250604051806060016040528060288152602001613c0a6028913960408201526114818361181e565b60608083019190915260408051918201905260288082526139d9602083013960808201526114ae83610f5b565b60a082015260408051606081019091526028808252613a53602083013960c08201526114d983611065565b60e082015260408051606081019091526029808252613a7b60208301396101008201526115058361076f565b61012082015260408051606081019091526029808252613a2a602083013961014082015261153283611714565b61016082015260408051606081019091526029808252613ba1602083013961018082015261155f83610d1b565b6101a082015260408051606081019091526029808252613a0160208301396101c082015261158c83611316565b6101e0820152604080518082018252600d81527f3c2f746578743e3c2f7376673e00000000000000000000000000000000000000602080830191909152610200840191909152825181840151838501516060860151608087015160a088015160c089015160e08a01516101008b0151995160009a61160c9a90910161324c565b604080518083037fffffffffffffffffffffffffffffffffffffffffffffffffffffffffffffffe0018152908290526101208401516101408501516101608601516101808701516101a08801516101c08901516101e08a01516102008b015197995061167d988a989060200161324c565b604051602081830303815290604052905060006116ca61169c86612442565b6116a584612574565b6040516020016116b692919061330d565b604051602081830303815290604052612574565b9050806040516020016116dd91906134cb565b604080517fffffffffffffffffffffffffffffffffffffffffffffffffffffffffffffffe081840301815291905295945050505050565b60606104b9826040518060400160405280600481526020017f48414e44000000000000000000000000000000000000000000000000000000008152506011805480602002602001604051908101604052809291908181526020016000905b82821015610879578382906000526020600020018054611791906131c9565b80601f01602080910402602001604051908101604052809291908181526020018280546117bd906131c9565b801561180a5780601f106117df5761010080835404028352916020019161180a565b820191906000526020600020905b8154815290600101906020018083116117ed57829003601f168201915b505050505081526020019060010190611772565b60606104b9826040518060400160405280600581526020017f4348455354000000000000000000000000000000000000000000000000000000815250600d805480602002602001604051908101604052809291908181526020016000905b8282101561087957838290600052602060002001805461189b906131c9565b80601f01602080910402602001604051908101604052809291908181526020018280546118c7906131c9565b80156119145780601f106118e957610100808354040283529160200191611914565b820191906000526020600020905b8154815290600101906020018083116118f757829003601f168201915b50505050508152602001906001019061187c565b600b5473ffffffffffffffffffffffffffffffffffffffff16331461198f5760405162461bcd60e51b815260206004820181905260248201527f4f776e61626c653a2063616c6c6572206973206e6f7420746865206f776e657260448201526064016105e4565b73ffffffffffffffffffffffffffffffffffffffff8116611a185760405162461bcd60e51b815260206004820152602660248201527f4f776e61626c653a206e6577206f776e657220697320746865207a65726f206160448201527f646472657373000000000000000000000000000000000000000000000000000060648201526084016105e4565b611a218161222e565b50565b60007fffffffff0000000000000000000000000000000000000000000000000000000082167f80ac58cd000000000000000000000000000000000000000000000000000000001480611ab757507fffffffff0000000000000000000000000000000000000000000000000000000082167f5b5e139f00000000000000000000000000000000000000000000000000000000145b806104b957507f01ffc9a7000000000000000000000000000000000000000000000000000000007fffffffff000000000000000000000000000000000000000000000000000000008316146104b9565b600081815260046020526040902080547fffffffffffffffffffffffff00000000000000000000000000000000000000001673ffffffffffffffffffffffffffffffffffffffff84169081179091558190611b6182610c83565b73ffffffffffffffffffffffffffffffffffffffff167f8c5be1e5ebec7d5bd14f71427d1e84f3dd0314c0f7b2291e5b200ac8c7c3b92560405160405180910390a45050565b60606000611bdd84611bb887612442565b604051602001611bc9929190613510565b60405160208183030381529060405261274d565b9050600083845183611bef919061356e565b81518110611bff57611bff61321d565b602002602001015190506000601583611c18919061356e565b9050600e811115611c715760148054839190611c34908661356e565b81548110611c4457611c4461321d565b90600052602060002001604051602001611c5f929190613582565b60405160208183030381529060405291505b60138110611e7657611c81612e7a565b60158054611c8f908661356e565b81548110611c9f57611c9f61321d565b906000526020600020018054611cb4906131c9565b80601f0160208091040260200160405190810160405280929190818152602001828054611ce0906131c9565b8015611d2d5780601f10611d0257610100808354040283529160200191611d2d565b820191906000526020600020905b815481529060010190602001808311611d1057829003601f168201915b505050505081600060028110611d4557611d4561321d565b602002015260168054611d58908661356e565b81548110611d6857611d6861321d565b906000526020600020018054611d7d906131c9565b80601f0160208091040260200160405190810160405280929190818152602001828054611da9906131c9565b8015611df65780601f10611dcb57610100808354040283529160200191611df6565b820191906000526020600020905b815481529060010190602001808311611dd957829003601f168201915b505050505081600160028110611e0e57611e0e61321d565b60200201526013821415611e4a578051602080830151604051611e349392879101613695565b6040516020818303038152906040529250611e74565b8051602080830151604051611e629392879101613755565b60405160208183030381529060405292505b505b5095945050505050565b60008181526002602052604081205473ffffffffffffffffffffffffffffffffffffffff16611f175760405162461bcd60e51b815260206004820152602c60248201527f4552433732313a206f70657261746f7220717565727920666f72206e6f6e657860448201527f697374656e7420746f6b656e000000000000000000000000000000000000000060648201526084016105e4565b6000611f2283610c83565b90508073ffffffffffffffffffffffffffffffffffffffff168473ffffffffffffffffffffffffffffffffffffffff161480611f9157508373ffffffffffffffffffffffffffffffffffffffff16611f7984610551565b73ffffffffffffffffffffffffffffffffffffffff16145b80611fce575073ffffffffffffffffffffffffffffffffffffffff80821660009081526005602090815260408083209388168352929052205460ff165b949350505050565b8273ffffffffffffffffffffffffffffffffffffffff16611ff682610c83565b73ffffffffffffffffffffffffffffffffffffffff161461207f5760405162461bcd60e51b815260206004820152602560248201527f4552433732313a207472616e736665722066726f6d20696e636f72726563742060448201527f6f776e657200000000000000000000000000000000000000000000000000000060648201526084016105e4565b73ffffffffffffffffffffffffffffffffffffffff82166121075760405162461bcd60e51b8152602060048201526024808201527f4552433732313a207472616e7366657220746f20746865207a65726f2061646460448201527f726573730000000000000000000000000000000000000000000000000000000060648201526084016105e4565b61211283838361279c565b61211d600082611b07565b73ffffffffffffffffffffffffffffffffffffffff8316600090815260036020526040812080546001929061215390849061386e565b909155505073ffffffffffffffffffffffffffffffffffffffff8216600090815260036020526040812080546001929061218e908490613885565b909155505060008181526002602052604080822080547fffffffffffffffffffffffff00000000000000000000000000000000000000001673ffffffffffffffffffffffffffffffffffffffff86811691821790925591518493918716917fddf252ad1be2c89b69c2b068fc378daa952ba7f163c4a11628f55a4df523b3ef91a4505050565b6112848282604051806020016040528060008152506128a2565b600b805473ffffffffffffffffffffffffffffffffffffffff8381167fffffffffffffffffffffffff0000000000000000000000000000000000000000831681179093556040519116919082907f8be0079c531659141344cd1fd0a4f28419497f9722a3daafe3b4186f6b6457e090600090a35050565b8173ffffffffffffffffffffffffffffffffffffffff168373ffffffffffffffffffffffffffffffffffffffff1614156123215760405162461bcd60e51b815260206004820152601960248201527f4552433732313a20617070726f766520746f2063616c6c65720000000000000060448201526064016105e4565b73ffffffffffffffffffffffffffffffffffffffff83811660008181526005602090815260408083209487168084529482529182902080547fffffffffffffffffffffffffffffffffffffffffffffffffffffffffffffff001686151590811790915591519182527f17307eab39ab6107e8899845ad3d59bd9653f200f220920489ca2b5937696c31910160405180910390a3505050565b6123c4848484611fd6565b6123d08484848461292b565b6113105760405162461bcd60e51b815260206004820152603260248201527f4552433732313a207472616e7366657220746f206e6f6e20455243373231526560448201527f63656976657220696d706c656d656e746572000000000000000000000000000060648201526084016105e4565b60608161248257505060408051808201909152600181527f3000000000000000000000000000000000000000000000000000000000000000602082015290565b8160005b81156124ac57806124968161389d565b91506124a59050600a836138d6565b9150612486565b60008167ffffffffffffffff8111156124c7576124c761306d565b6040519080825280601f01601f1916602001820160405280156124f1576020820181803683370190505b5090505b8415611fce5761250660018361386e565b9150612513600a8661356e565b61251e906030613885565b60f81b8183815181106125335761253361321d565b60200101907effffffffffffffffffffffffffffffffffffffffffffffffffffffffffffff1916908160001a90535061256d600a866138d6565b94506124f5565b805160609080612594575050604080516020810190915260008152919050565b600060036125a3836002613885565b6125ad91906138d6565b6125b89060046138ea565b905060006125c7826020613885565b67ffffffffffffffff8111156125df576125df61306d565b6040519080825280601f01601f191660200182016040528015612609576020820181803683370190505b5090506000604051806060016040528060408152602001613bca604091399050600181016020830160005b86811015612695576003818a01810151603f601282901c8116860151600c83901c8216870151600684901c831688015192909316870151600891821b60ff94851601821b92841692909201901b91160160e01b835260049092019101612634565b5060038606600181146126af57600281146126f95761273f565b7f3d3d0000000000000000000000000000000000000000000000000000000000007ffffffffffffffffffffffffffffffffffffffffffffffffffffffffffffffffe83015261273f565b7f3d000000000000000000000000000000000000000000000000000000000000007fffffffffffffffffffffffffffffffffffffffffffffffffffffffffffffffff8301525b505050918152949350505050565b6000816040516020016127609190613927565b604080517fffffffffffffffffffffffffffffffffffffffffffffffffffffffffffffffe0818403018152919052805160209091012092915050565b73ffffffffffffffffffffffffffffffffffffffff8316612804576127ff81600880546000838152600960205260408120829055600182018355919091527ff3f7a9fe364faab93b216da50a3214154f22a0a2b415b23a84c8169e8b636ee30155565b612841565b8173ffffffffffffffffffffffffffffffffffffffff168373ffffffffffffffffffffffffffffffffffffffff1614612841576128418382612b01565b73ffffffffffffffffffffffffffffffffffffffff82166128655761076a81612bb8565b8273ffffffffffffffffffffffffffffffffffffffff168273ffffffffffffffffffffffffffffffffffffffff161461076a5761076a8282612c67565b6128ac8383612cb8565b6128b9600084848461292b565b61076a5760405162461bcd60e51b815260206004820152603260248201527f4552433732313a207472616e7366657220746f206e6f6e20455243373231526560448201527f63656976657220696d706c656d656e746572000000000000000000000000000060648201526084016105e4565b600073ffffffffffffffffffffffffffffffffffffffff84163b15612af6576040517f150b7a0200000000000000000000000000000000000000000000000000000000815273ffffffffffffffffffffffffffffffffffffffff85169063150b7a02906129a2903390899088908890600401613943565b6020604051808303816000875af19250505080156129fb575060408051601f3d9081017fffffffffffffffffffffffffffffffffffffffffffffffffffffffffffffffe01682019092526129f89181019061398c565b60015b612aab573d808015612a29576040519150601f19603f3d011682016040523d82523d6000602084013e612a2e565b606091505b508051612aa35760405162461bcd60e51b815260206004820152603260248201527f4552433732313a207472616e7366657220746f206e6f6e20455243373231526560448201527f63656976657220696d706c656d656e746572000000000000000000000000000060648201526084016105e4565b805181602001fd5b7fffffffff00000000000000000000000000000000000000000000000000000000167f150b7a0200000000000000000000000000000000000000000000000000000000149050611fce565b506001949350505050565b60006001612b0e84610e25565b612b18919061386e565b600083815260076020526040902054909150808214612b785773ffffffffffffffffffffffffffffffffffffffff841660009081526006602090815260408083208584528252808320548484528184208190558352600790915290208190555b50600091825260076020908152604080842084905573ffffffffffffffffffffffffffffffffffffffff9094168352600681528383209183525290812055565b600854600090612bca9060019061386e565b60008381526009602052604081205460088054939450909284908110612bf257612bf261321d565b906000526020600020015490508060088381548110612c1357612c1361321d565b6000918252602080832090910192909255828152600990915260408082208490558582528120556008805480612c4b57612c4b6139a9565b6001900381819060005260206000200160009055905550505050565b6000612c7283610e25565b73ffffffffffffffffffffffffffffffffffffffff9093166000908152600660209081526040808320868452825280832085905593825260079052919091209190915550565b73ffffffffffffffffffffffffffffffffffffffff8216612d1b5760405162461bcd60e51b815260206004820181905260248201527f4552433732313a206d696e7420746f20746865207a65726f206164647265737360448201526064016105e4565b60008181526002602052604090205473ffffffffffffffffffffffffffffffffffffffff1615612d8d5760405162461bcd60e51b815260206004820152601c60248201527f4552433732313a20746f6b656e20616c7265616479206d696e7465640000000060448201526064016105e4565b612d996000838361279c565b73ffffffffffffffffffffffffffffffffffffffff82166000908152600360205260408120805460019290612dcf908490613885565b909155505060008181526002602052604080822080547fffffffffffffffffffffffff00000000000000000000000000000000000000001673ffffffffffffffffffffffffffffffffffffffff861690811790915590518392907fddf252ad1be2c89b69c2b068fc378daa952ba7f163c4a11628f55a4df523b3ef908290a45050565b6040518061022001604052806011905b6060815260200190600190039081612e625790505090565b6040805180820190915260608152600160208201612e62565b7fffffffff0000000000000000000000000000000000000000000000000000000081168114611a2157600080fd5b600060208284031215612ed357600080fd5b8135612ede81612e93565b9392505050565b60005b83811015612f00578181015183820152602001612ee8565b838111156113105750506000910152565b60008151808452612f29816020860160208601612ee5565b601f017fffffffffffffffffffffffffffffffffffffffffffffffffffffffffffffffe0169290920160200192915050565b602081526000612ede6020830184612f11565b600060208284031215612f8057600080fd5b5035919050565b803573ffffffffffffffffffffffffffffffffffffffff81168114612fab57600080fd5b919050565b60008060408385031215612fc357600080fd5b612fcc83612f87565b946020939093013593505050565b600080600060608486031215612fef57600080fd5b612ff884612f87565b925061300660208501612f87565b9150604084013590509250925092565b60006020828403121561302857600080fd5b612ede82612f87565b6000806040838503121561304457600080fd5b61304d83612f87565b91506020830135801515811461306257600080fd5b809150509250929050565b7f4e487b7100000000000000000000000000000000000000000000000000000000600052604160045260246000fd5b600080600080608085870312156130b257600080fd5b6130bb85612f87565b93506130c960208601612f87565b925060408501359150606085013567ffffffffffffffff808211156130ed57600080fd5b818701915087601f83011261310157600080fd5b8135818111156131135761311361306d565b604051601f82017fffffffffffffffffffffffffffffffffffffffffffffffffffffffffffffffe0908116603f011681019083821181831017156131595761315961306d565b816040528281528a602084870101111561317257600080fd5b82602086016020830137600060208483010152809550505050505092959194509250565b600080604083850312156131a957600080fd5b6131b283612f87565b91506131c060208401612f87565b90509250929050565b600181811c908216806131dd57607f821691505b60208210811415613217577f4e487b7100000000000000000000000000000000000000000000000000000000600052602260045260246000fd5b50919050565b7f4e487b7100000000000000000000000000000000000000000000000000000000600052603260045260246000fd5b60008a5161325e818460208f01612ee5565b8a516132708183860160208f01612ee5565b8a519184010190613285818360208e01612ee5565b89516132978183850160208e01612ee5565b89519290910101906132ad818360208c01612ee5565b87516132bf8183850160208c01612ee5565b87519290910101906132d5818360208a01612ee5565b85516132e78183850160208a01612ee5565b85519290910101906132fd818360208801612ee5565b019b9a5050505050505050505050565b7f7b226e616d65223a20224261672023000000000000000000000000000000000081526000835161334581600f850160208801612ee5565b80830190507f222c20226465736372697074696f6e223a20224c6f6f742069732072616e646f600f8201527f6d697a656420616476656e747572657220676561722067656e65726174656420602f8201527f616e642073746f726564206f6e20636861696e2e2053746174732c20696d6167604f8201527f65732c20616e64206f746865722066756e6374696f6e616c6974792061726520606f8201527f696e74656e74696f6e616c6c79206f6d697474656420666f72206f7468657273608f8201527f20746f20696e746572707265742e204665656c206672656520746f207573652060af8201527f4c6f6f7420696e20616e792077617920796f752077616e742e222c2022696d6160cf8201527f6765223a2022646174613a696d6167652f7376672b786d6c3b6261736536342c60ef82015261010f845161348f8183850160208901612ee5565b6134c082828501017f227d000000000000000000000000000000000000000000000000000000000000815260020190565b979650505050505050565b7f646174613a6170706c69636174696f6e2f6a736f6e3b6261736536342c00000081526000825161350381601d850160208701612ee5565b91909101601d0192915050565b60008351613522818460208801612ee5565b835190830190613536818360208801612ee5565b01949350505050565b7f4e487b7100000000000000000000000000000000000000000000000000000000600052601260045260246000fd5b60008261357d5761357d61353f565b500690565b6000835160206135958285838901612ee5565b7f2000000000000000000000000000000000000000000000000000000000000000918401918252845460019060009080831c818416806135d657607f821691505b85821081141561360d577f4e487b710000000000000000000000000000000000000000000000000000000084526022600452602484fd5b808015613621576001811461365457613685565b7fffffffffffffffffffffffffffffffffffffffffffffffffffffffffffffff0084168689015285838901019450613685565b60008b81526020902060005b8481101561367b5781548a8201890152908701908801613660565b5050858389010194505b50929a9950505050505050505050565b7f22000000000000000000000000000000000000000000000000000000000000008152600084516136cd816001850160208901612ee5565b7f2000000000000000000000000000000000000000000000000000000000000000600191840191820152845161370a816002840160208901612ee5565b7f2220000000000000000000000000000000000000000000000000000000000000600292909101918201528351613748816004840160208801612ee5565b0160040195945050505050565b7f220000000000000000000000000000000000000000000000000000000000000081526000845161378d816001850160208901612ee5565b7f200000000000000000000000000000000000000000000000000000000000000060019184019182015284516137ca816002840160208901612ee5565b7f2220000000000000000000000000000000000000000000000000000000000000600292909101918201528351613808816004840160208801612ee5565b7f202b3100000000000000000000000000000000000000000000000000000000006004929091019182015260070195945050505050565b7f4e487b7100000000000000000000000000000000000000000000000000000000600052601160045260246000fd5b6000828210156138805761388061383f565b500390565b600082198211156138985761389861383f565b500190565b60007fffffffffffffffffffffffffffffffffffffffffffffffffffffffffffffffff8214156138cf576138cf61383f565b5060010190565b6000826138e5576138e561353f565b500490565b6000817fffffffffffffffffffffffffffffffffffffffffffffffffffffffffffffffff04831182151516156139225761392261383f565b500290565b60008251613939818460208701612ee5565b9190910192915050565b600073ffffffffffffffffffffffffffffffffffffffff8087168352808616602084015250836040830152608060608301526139826080830184612f11565b9695505050505050565b60006020828403121561399e57600080fd5b8151612ede81612e93565b7f4e487b7100000000000000000000000000000000000000000000000000000000600052603160045260246000fdfe3c2f746578743e3c7465787420783d2231302220793d2236302220636c6173733d2262617365223e3c2f746578743e3c7465787420783d2231302220793d223136302220636c6173733d2262617365223e3c2f746578743e3c7465787420783d2231302220793d223132302220636c6173733d2262617365223e3c2f746578743e3c7465787420783d2231302220793d2238302220636c6173733d2262617365223e3c2f746578743e3c7465787420783d2231302220793d223130302220636c6173733d2262617365223e3c73766720786d6c6e733d22687474703a2f2f7777772e77332e6f72672f323030302f73766722207072657365727665417370656374526174696f3d22784d696e594d696e206d656574222076696577426f783d223020302033353020333530223e3c7374796c653e2e62617365207b2066696c6c3a2077686974653b20666f6e742d66616d696c793a2073657269663b20666f6e742d73697a653a20313470783b207d3c2f7374796c653e3c726563742077696474683d223130302522206865696768743d2231303025222066696c6c3d22626c61636b22202f3e3c7465787420783d2231302220793d2232302220636c6173733d2262617365223e3c2f746578743e3c7465787420783d2231302220793d223134302220636c6173733d2262617365223e4142434445464748494a4b4c4d4e4f505152535455565758595a6162636465666768696a6b6c6d6e6f707172737475767778797a303132333435363738392b2f3c2f746578743e3c7465787420783d2231302220793d2234302220636c6173733d2262617365223ea264697066735822122091b7090b161832c01f586efab8a1ccff74994ee7ee81c7700fbae2f84e9e672864736f6c634300080a0033",
    "linkReferences": {}
  }
}