{
  "abi": [
    {
      "inputs": [],
      "stateMutability": "nonpayable",
      "type": "constructor"
    },
    {
      "anonymous": false,
      "inputs": [
        {
          "indexed": true,
          "internalType": "address",
          "name": "owner",
          "type": "address"
        },
        {
          "indexed": true,
          "internalType": "address",
          "name": "approved",
          "type": "address"
        },
        {
          "indexed": true,
          "internalType": "uint256",
          "name": "tokenId",
          "type": "uint256"
        }
      ],
      "name": "Approval",
      "type": "event"
    },
    {
      "anonymous": false,
      "inputs": [
        {
          "indexed": true,
          "internalType": "address",
          "name": "owner",
          "type": "address"
        },
        {
          "indexed": true,
          "internalType": "address",
          "name": "operator",
          "type": "address"
        },
        {
          "indexed": false,
          "internalType": "bool",
          "name": "approved",
          "type": "bool"
        }
      ],
      "name": "ApprovalForAll",
      "type": "event"
    },
    {
      "anonymous": false,
      "inputs": [
        {
          "indexed": true,
          "internalType": "address",
          "name": "previousOwner",
          "type": "address"
        },
        {
          "indexed": true,
          "internalType": "address",
          "name": "newOwner",
          "type": "address"
        }
      ],
      "name": "OwnershipTransferred",
      "type": "event"
    },
    {
      "anonymous": false,
      "inputs": [
        {
          "indexed": true,
          "internalType": "address",
          "name": "from",
          "type": "address"
        },
        {
          "indexed": true,
          "internalType": "address",
          "name": "to",
          "type": "address"
        },
        {
          "indexed": true,
          "internalType": "uint256",
          "name": "tokenId",
          "type": "uint256"
        }
      ],
      "name": "Transfer",
      "type": "event"
    },
    {
      "inputs": [
        {
          "internalType": "address",
          "name": "to",
          "type": "address"
        },
        {
          "internalType": "uint256",
          "name": "tokenId",
          "type": "uint256"
        }
      ],
      "name": "approve",
      "outputs": [],
      "stateMutability": "nonpayable",
      "type": "function"
    },
    {
      "inputs": [
        {
          "internalType": "address",
          "name": "owner",
          "type": "address"
        }
      ],
      "name": "balanceOf",
      "outputs": [
        {
          "internalType": "uint256",
          "name": "",
          "type": "uint256"
        }
      ],
      "stateMutability": "view",
      "type": "function"
    },
    {
      "inputs": [
        {
          "internalType": "uint256",
          "name": "tokenId",
          "type": "uint256"
        }
      ],
      "name": "claim",
      "outputs": [],
      "stateMutability": "nonpayable",
      "type": "function"
    },
    {
      "inputs": [
        {
          "internalType": "uint256",
          "name": "tokenId",
          "type": "uint256"
        }
      ],
      "name": "getApproved",
      "outputs": [
        {
          "internalType": "address",
          "name": "",
          "type": "address"
        }
      ],
      "stateMutability": "view",
      "type": "function"
    },
    {
      "inputs": [
        {
          "internalType": "uint256",
          "name": "tokenId",
          "type": "uint256"
        }
      ],
      "name": "getChest",
      "outputs": [
        {
          "internalType": "string",
          "name": "",
          "type": "string"
        }
      ],
      "stateMutability": "view",
      "type": "function"
    },
    {
      "inputs": [
        {
          "internalType": "uint256",
          "name": "tokenId",
          "type": "uint256"
        }
      ],
      "name": "getFoot",
      "outputs": [
        {
          "internalType": "string",
          "name": "",
          "type": "string"
        }
      ],
      "stateMutability": "view",
      "type": "function"
    },
    {
      "inputs": [
        {
          "internalType": "uint256",
          "name": "tokenId",
          "type": "uint256"
        }
      ],
      "name": "getHand",
      "outputs": [
        {
          "internalType": "string",
          "name": "",
          "type": "string"
        }
      ],
      "stateMutability": "view",
      "type": "function"
    },
    {
      "inputs": [
        {
          "internalType": "uint256",
          "name": "tokenId",
          "type": "uint256"
        }
      ],
      "name": "getHead",
      "outputs": [
        {
          "internalType": "string",
          "name": "",
          "type": "string"
        }
      ],
      "stateMutability": "view",
      "type": "function"
    },
    {
      "inputs": [
        {
          "internalType": "uint256",
          "name": "tokenId",
          "type": "uint256"
        }
      ],
      "name": "getNeck",
      "outputs": [
        {
          "internalType": "string",
          "name": "",
          "type": "string"
        }
      ],
      "stateMutability": "view",
      "type": "function"
    },
    {
      "inputs": [
        {
          "internalType": "uint256",
          "name": "tokenId",
          "type": "uint256"
        }
      ],
      "name": "getRing",
      "outputs": [
        {
          "internalType": "string",
          "name": "",
          "type": "string"
        }
      ],
      "stateMutability": "view",
      "type": "function"
    },
    {
      "inputs": [
        {
          "internalType": "uint256",
          "name": "tokenId",
          "type": "uint256"
        }
      ],
      "name": "getWaist",
      "outputs": [
        {
          "internalType": "string",
          "name": "",
          "type": "string"
        }
      ],
      "stateMutability": "view",
      "type": "function"
    },
    {
      "inputs": [
        {
          "internalType": "uint256",
          "name": "tokenId",
          "type": "uint256"
        }
      ],
      "name": "getWeapon",
      "outputs": [
        {
          "internalType": "string",
          "name": "",
          "type": "string"
        }
      ],
      "stateMutability": "view",
      "type": "function"
    },
    {
      "inputs": [
        {
          "internalType": "address",
          "name": "owner",
          "type": "address"
        },
        {
          "internalType": "address",
          "name": "operator",
          "type": "address"
        }
      ],
      "name": "isApprovedForAll",
      "outputs": [
        {
          "internalType": "bool",
          "name": "",
          "type": "bool"
        }
      ],
      "stateMutability": "view",
      "type": "function"
    },
    {
      "inputs": [],
      "name": "name",
      "outputs": [
        {
          "internalType": "string",
          "name": "",
          "type": "string"
        }
      ],
      "stateMutability": "view",
      "type": "function"
    },
    {
      "inputs": [],
      "name": "owner",
      "outputs": [
        {
          "internalType": "address",
          "name": "",
          "type": "address"
        }
      ],
      "stateMutability": "view",
      "type": "function"
    },
    {
      "inputs": [
        {
          "internalType": "uint256",
          "name": "tokenId",
          "type": "uint256"
        }
      ],
      "name": "ownerOf",
      "outputs": [
        {
          "internalType": "address",
          "name": "",
          "type": "address"
        }
      ],
      "stateMutability": "view",
      "type": "function"
    },
    {
      "inputs": [],
      "name": "renounceOwnership",
      "outputs": [],
      "stateMutability": "nonpayable",
      "type": "function"
    },
    {
      "inputs": [
        {
          "internalType": "address",
          "name": "from",
          "type": "address"
        },
        {
          "internalType": "address",
          "name": "to",
          "type": "address"
        },
        {
          "internalType": "uint256",
          "name": "tokenId",
          "type": "uint256"
        }
      ],
      "name": "safeTransferFrom",
      "outputs": [],
      "stateMutability": "nonpayable",
      "type": "function"
    },
    {
      "inputs": [
        {
          "internalType": "address",
          "name": "from",
          "type": "address"
        },
        {
          "internalType": "address",
          "name": "to",
          "type": "address"
        },
        {
          "internalType": "uint256",
          "name": "tokenId",
          "type": "uint256"
        },
        {
          "internalType": "bytes",
          "name": "_data",
          "type": "bytes"
        }
      ],
      "name": "safeTransferFrom",
      "outputs": [],
      "stateMutability": "nonpayable",
      "type": "function"
    },
    {
      "inputs": [
        {
          "internalType": "address",
          "name": "operator",
          "type": "address"
        },
        {
          "internalType": "bool",
          "name": "approved",
          "type": "bool"
        }
      ],
      "name": "setApprovalForAll",
      "outputs": [],
      "stateMutability": "nonpayable",
      "type": "function"
    },
    {
      "inputs": [
        {
          "internalType": "bytes4",
          "name": "interfaceId",
          "type": "bytes4"
        }
      ],
      "name": "supportsInterface",
      "outputs": [
        {
          "internalType": "bool",
          "name": "",
          "type": "bool"
        }
      ],
      "stateMutability": "view",
      "type": "function"
    },
    {
      "inputs": [],
      "name": "symbol",
      "outputs": [
        {
          "internalType": "string",
          "name": "",
          "type": "string"
        }
      ],
      "stateMutability": "view",
      "type": "function"
    },
    {
      "inputs": [
        {
          "internalType": "uint256",
          "name": "index",
          "type": "uint256"
        }
      ],
      "name": "tokenByIndex",
      "outputs": [
        {
          "internalType": "uint256",
          "name": "",
          "type": "uint256"
        }
      ],
      "stateMutability": "view",
      "type": "function"
    },
    {
      "inputs": [
        {
          "internalType": "address",
          "name": "owner",
          "type": "address"
        },
        {
          "internalType": "uint256",
          "name": "index",
          "type": "uint256"
        }
      ],
      "name": "tokenOfOwnerByIndex",
      "outputs": [
        {
          "internalType": "uint256",
          "name": "",
          "type": "uint256"
        }
      ],
      "stateMutability": "view",
      "type": "function"
    },
    {
      "inputs": [
        {
          "internalType": "uint256",
          "name": "tokenId",
          "type": "uint256"
        }
      ],
      "name": "tokenURI",
      "outputs": [
        {
          "internalType": "string",
          "name": "",
          "type": "string"
        }
      ],
      "stateMutability": "view",
      "type": "function"
    },
    {
      "inputs": [],
      "name": "totalSupply",
      "outputs": [
        {
          "internalType": "uint256",
          "name": "",
          "type": "uint256"
        }
      ],
      "stateMutability": "view",
      "type": "function"
    },
    {
      "inputs": [
        {
          "internalType": "address",
          "name": "from",
          "type": "address"
        },
        {
          "internalType": "address",
          "name": "to",
          "type": "address"
        },
        {
          "internalType": "uint256",
          "name": "tokenId",
          "type": "uint256"
        }
      ],
      "name": "transferFrom",
      "outputs": [],
      "stateMutability": "nonpayable",
      "type": "function"
    },
    {
      "inputs": [
        {
          "internalType": "address",
          "name": "newOwner",
          "type": "address"
        }
      ],
      "name": "transferOwnership",
      "outputs": [],
      "stateMutability": "nonpayable",
      "type": "function"
    }
  ],
  "bytecode": {
    "object": "0x60096102c0818152682bb0b93430b6b6b2b960b91b6102e0526080908152600c6103008181526b28bab0b93a32b939ba30b33360a11b6103205260a05260046103408181526313585d5b60e21b6103605260c052610380818152634d61636560e01b6103a05260e0526103c08181526321b63ab160e11b6103e052610100526006610400908152654b6174616e6160d01b61042052610120526008610440818152672330b631b434b7b760c11b61046052610140526104808181526729b1b4b6b4ba30b960c11b6104a05261016052600a6104c081815269131bdb99c814dddbdc9960b21b6104e05261018052600b6105009081526a14da1bdc9d0814dddbdc9960aa1b610520526101a0526105408181526911da1bdcdd0815d85b9960b21b610560526101c0526105809081526911dc985d994815d85b9960b21b6105a0526101e0526105c085815268109bdb994815d85b9960ba1b6105e052610200526106008281526315d85b9960e21b6106205261022052610640908152674772696d6f69726560c01b6106605261024052610680938452684368726f6e69636c6560b81b6106a052610260939093526106c083815263546f6d6560e01b6106e0526102805261074060405261070092835263426f6f6b60e01b610720526102a092909252620001ef9190601262001d20565b506040805161022081018252600b6101e082019081526a446976696e6520526f626560a81b61020083015281528151808301835260098082526853696c6b20526f626560b81b6020838101919091528084019290925283518085018552600a808252694c696e656e20526f626560b01b8285015284860191909152845180860186526004815263526f626560e01b81850152606085015284518086018652600581526414da1a5c9d60da1b818501526080850152845180860186528181526944656d6f6e204875736b60b01b8185015260a085015284518086018652601081526f223930b3b7b739b5b4b71020b936b7b960811b8185015260c085015284518086018652601581527f53747564646564204c6561746865722041726d6f7200000000000000000000008185015260e08501528451808601865260128152712430b932102632b0ba3432b91020b936b7b960711b8185015261010085015284518086018652600d8082526c2632b0ba3432b91020b936b7b960991b8286015261012086019190915285518087018752600f8082526e486f6c79204368657374706c61746560881b828701526101408701919091528651808801885260118152704f726e617465204368657374706c61746560781b818701526101608701528651808801885283815269141b185d194813585a5b60b21b81870152610180870152865180880188529283526910da185a5b8813585a5b60b21b838601526101a0860192909252855180870190965291855268149a5b99c813585a5b60ba1b928501929092526101c08301939093526200044892919062001d84565b50604051806101e001604052806040518060400160405280600c81526020016b416e6369656e742048656c6d60a01b81525081526020016040518060400160405280600b81526020016a4f726e6174652048656c6d60a81b81525081526020016040518060400160405280600a81526020016947726561742048656c6d60b01b81525081526020016040518060400160405280600981526020016846756c6c2048656c6d60b81b81525081526020016040518060400160405280600481526020016348656c6d60e01b81525081526020016040518060400160405280600b81526020016a2232b6b7b71021b937bbb760a91b81525081526020016040518060400160405280600e81526020016d223930b3b7b713b99021b937bbb760911b8152508152602001604051806040016040528060078152602001660576172204361760cc1b81525081526020016040518060400160405280600b81526020016a04c656174686572204361760ac1b81525081526020016040518060400160405280600381526020016204361760ec1b81525081526020016040518060400160405280600581526020016421b937bbb760d91b81525081526020016040518060400160405280600b81526020016a111a5d9a5b9948121bdbd960aa1b81525081526020016040518060400160405280600981526020016814da5b1ac8121bdbd960ba1b81525081526020016040518060400160405280600a815260200169131a5b995b88121bdbd960b21b815250815260200160405180604001604052806004815260200163121bdbd960e21b815250815250600e90600f620006aa92919062001d84565b506040805161022081018252600b6101e082018181526a13dc9b985d194810995b1d60aa1b610200840152825282518084018452600881526715d85c8810995b1d60c21b60208281019190915280840191909152835180850185529182526a141b185d19590810995b1d60aa1b82820152828401919091528251808401845260098082526813595cda0810995b1d60ba1b82840152606084019190915283518085018552600a808252691219585d9e4810995b1d60b21b82850152608085019190915284518086018652600e81526d11195b5bdb9a1a59194810995b1d60921b8185015260a085015284518086018652600f8082526e111c9859dbdb9cdada5b8810995b1d608a1b8286015260c086019190915285518087018752601481527f53747564646564204c6561746865722042656c740000000000000000000000008186015260e086015285518087018752601181527012185c99081319585d1a195c8810995b1d607a1b8186015261010086015285518087018752600c81526b1319585d1a195c8810995b1d60a21b81860152610120860152855180870187528181526e084e4d2ced0e8e6d2d8d640a6c2e6d608b1b8186015261014086015285518087018752838152680a6d2d8d640a6c2e6d60bb1b8186015261016086015285518087018752928352680aededed840a6c2e6d60bb1b838501526101808501929092528451808601865290815269098d2dccadc40a6c2e6d60b31b818401526101a0840152835180850190945260048452630a6c2e6d60e31b918401919091526101c08201929092526200090191908162001d84565b506040805161022081018252600c6101e082019081526b486f6c79204772656176657360a01b610200830152815281518083018352600e81526d4f726e617465204772656176657360901b602082810191909152808301919091528251808401845260078152664772656176657360c81b818301528284015282518084018452600b8082526a436861696e20426f6f747360a81b828401526060840191909152835180850185528181526a486561767920426f6f747360a81b81840152608084015283518085018552600f8082526e44656d6f6e6869646520426f6f747360881b8285015260a08501919091528451808601865260108082526f447261676f6e736b696e20426f6f747360801b8286015260c086019190915285518087018752601581527f53747564646564204c65617468657220426f6f747300000000000000000000008186015260e086015285518087018752601281527148617264204c65617468657220426f6f747360701b8186015261010086015285518087018752600d8082526c4c65617468657220426f6f747360981b82870152610120870191909152865180880188528381526e446976696e6520536c69707065727360881b81870152610140870152865180880188529081526c53696c6b20536c69707065727360981b8186015261016086015285518087018752600a815269576f6f6c2053686f657360b01b81860152610180860152855180870187529283526a4c696e656e2053686f657360a81b838501526101a08501929092528451808601909552600585526453686f657360d81b928501929092526101c083019390935262000b6b92919062001d84565b506040805161022081018252600e6101e082018181526d486f6c79204761756e746c65747360901b610200840152825282518084018452601081526f4f726e617465204761756e746c65747360801b602082810191909152808401919091528351808501855260098152684761756e746c65747360b81b818301528385015283518085018552600c8082526b436861696e20476c6f76657360a01b828401526060850191909152845180860186528181526b486561767920476c6f76657360a01b81840152608085015284518086018652600d8082526c44656d6f6e27732048616e647360981b8285015260a086019190915285518087018752601180825270447261676f6e736b696e20476c6f76657360781b8286015260c087019190915286518088018852601681527f53747564646564204c65617468657220476c6f766573000000000000000000008186015260e087015286518088018852601381527f48617264204c65617468657220476c6f7665730000000000000000000000000081860152610100870152865180880188529485526d4c65617468657220476c6f76657360901b85850152610120860194909452855180870187529081526c446976696e6520476c6f76657360981b8184015261014085015284518086018652600b8082526a53696c6b20476c6f76657360a81b82850152610160860191909152855180870187529081526a576f6f6c20476c6f76657360a81b81840152610180850152845180860186529081526b4c696e656e20476c6f76657360a01b818301526101a084015283518085019094526006845265476c6f76657360d01b908401526101c082019290925262000de49190600f62001d84565b506040518060600160405280604051806040016040528060088152602001674e65636b6c61636560c01b815250815260200160405180604001604052806006815260200165105b5d5b195d60d21b81525081526020016040518060400160405280600781526020016614195b99185b9d60ca1b815250815250601290600362000e6f92919062001dd6565b506040805160e081018252600960a0820190815268476f6c642052696e6760b81b60c0830152815281518083018352600b8082526a53696c7665722052696e6760a81b60208381019190915280840192909252835180850185529081526a42726f6e7a652052696e6760a81b818301528284015282518084018452600d8082526c506c6174696e756d2052696e6760981b828401526060840191909152835180850190945283526c546974616e69756d2052696e6760981b90830152608081019190915262000f4390601390600562001e28565b506040805161024081018252600861020082018181526737b3102837bbb2b960c11b6102208401528252825180840184526009808252686f66204769616e747360b81b6020838101919091528085019290925284518086018652908152686f6620546974616e7360b81b818301528385015283518085018552828152671bd98814dada5b1b60c21b81830152606084015283518085018552600d8082526c37b3102832b93332b1ba34b7b760991b828401526080850191909152845180860186528181526c6f66204272696c6c69616e636560981b8184015260a08501528451808601865260108082526f1bd988115b9b1a59da1d195b9b595b9d60821b8285015260c0860191909152855180870187528281526c37b310283937ba32b1ba34b7b760991b8185015260e0860152855180870187529384526737b31020b733b2b960c11b84840152610100850193909352845180860186526007808252666f66205261676560c81b8285015261012086019190915285518087018752908152666f66204675727960c81b8184015261014085015284518086018652600a808252691bd988159a5d1c9a5bdb60b21b8285015261016086019190915285518087018752908152690decc40e8d0ca408cdef60b31b8184015261018085015284518086018652600c8082526b37b3102232ba32b1ba34b7b760a11b828501526101a0860191909152855180870187529182526c37b3102932b33632b1ba34b7b760991b828401526101c0850191909152845180860190955284526b6f6620746865205477696e7360a01b908401526101e0820192909252620011a7916014919062001e7a565b50604080516108e08101825260056108a082018181526441676f6e7960d81b6108c0840152825282518084018452600a8082526941706f63616c7970736560b01b60208381019190915280850192909252845180860186528181526920b936b0b3b2b23237b760b11b818401528486015284518086018652838152641099585cdd60da1b81840152606085015284518086018652600880825267084cad0cadadee8d60c31b82850152608086019190915285518087018752600680825265109b1a59da1d60d21b8286015260a08701919091528651808801885285815264109b1bdbd960da1b8186015260c0870152865180880188526007808252664272616d626c6560c81b8287015260e0880191909152875180890189526009808252684272696d73746f6e6560b81b828801526101008901919091528851808a018a5287815264109c9bdbd960da1b818801526101208901528851808a018a528281526621b0b93934b7b760c91b818801526101408901528851808a018a528181526843617461636c79736d60b81b818801526101608901528851808a018a52848152674368696d6572696360c01b818801526101808901528851808a018a5283815265436f7270736560d01b818801526101a08901528851808a018a528581526921b7b9393ab83a34b7b760b11b818801526101c08901528851808a018a52818152682230b6b730ba34b7b760b91b818801526101e08901528851808a018a5287815264088cac2e8d60db1b818801526102008901528851808a018a52878152642232b6b7b760d91b818801526102208901528851808a018a526004808252634469726560e01b828901526102408a01919091528951808b018b5284815265223930b3b7b760d11b818901526102608a01528951808b018b5288815264111c99585960da1b818901526102808a01528951808b018b5281815263446f6f6d60e01b818901526102a08a01528951808b018b52818152634475736b60e01b818901526102c08a01528951808b018b52888152644561676c6560d81b818901526102e08a01528951808b018b528581526722b6b83cb932b0b760c11b818901526103008a01528951808b018b52818152634661746560e01b818901526103208a01528951808b018b52600380825262466f6560e81b828a01526103408b01919091528a51808c018c528281526347616c6560e01b818a01526103608b01528a51808c018c528981526411da1bdd5b60da1b818a01526103808b01528a51808c018c5289815264476c6f6f6d60d81b818a01526103a08b01528a51808c018c528981526408ed8f2e0d60db1b818a01526103c08b01528a51808c018c5289815264476f6c656d60d81b818a01526103e08b01528a51808c018c52828152634772696d60e01b818a01526104008b01528a51808c018c52828152634861746560e01b818a01526104208b01528a51808c018c52898152644861766f6360d81b818a01526104408b01528a51808c018c52858152652437b737bab960d11b818a01526104608b01528a51808c018c52858152652437b93937b960d11b818a01526104808b01528a51808c018c52868152674879706e6f74696360c01b818a01526104a08b01528a51808c018c528581526525b930b5b2b760d11b818a01526104c08b01528a51808c018c5289815264098dec2e8d60db1b818a01526104e08b01528a51808c018c52838152684d61656c7374726f6d60b81b818a01526105008b01528a51808c018c5282815263135a5b9960e21b818a01526105208b01528a51808c018c52848152664d697261636c6560c81b818a01526105408b01528a51808c018c5285815265135bdc989a5960d21b818a01526105608b01528a51808c018c529586526727b13634bb34b7b760c11b868901526105808a01959095528951808b018b528281526813db9cdb185d59da1d60ba1b818901526105a08a01528951808b018b52818152632830b4b760e11b818901526105c08a01528951808b018b52600b81526a50616e64656d6f6e69756d60a81b818901526105e08a01528951808b018b52838152660a0d0decadcd2f60cb1b818901526106008a01528951808b018b5284815265506c6167756560d01b818901526106208a01528951808b018b52818152635261676560e01b818901526106408a01528951808b018b52838152665261707475726560c81b818901526106608a01528951808b018b528181526352756e6560e01b818901526106808a01528951808b018b528881526414dadd5b1b60da1b818901526106a08a01528951808b018b528581526214dbdb60ea1b818901526106c08a01528951808b018b529081526314dbdd5b60e21b818801526106e08901528851808a018a5283815265536f72726f7760d01b818801526107008901528851808a018a528381526514dc1a5c9a5d60d21b818801526107208901528851808a018a528781526453746f726d60d81b818801526107408901528851808a018a528281526615195b5c195cdd60ca1b818801526107608901528851808a018a5282815266151bdc9b595b9d60ca1b818801526107808901528851808a018a529081526856656e6765616e636560b81b818701526107a08801528751808901895281815266566963746f727960c81b818701526107c088015287518089018952868152642b34b832b960d91b818701526107e088015287518089018952918252650acdee4e8caf60d31b828601526108008701919091528651808801885291825262576f6560e81b8285015261082086019190915285518087018752938452640aee4c2e8d60db1b8484015261084085019390935284518086018652928352664c69676874277360c81b838301526108608401929092528351808501909452908352695368696d6d6572696e6760b01b9083015261088081019190915262001a1190601590604562001ecc565b506040805161028081018252600461024082018181526342616e6560e01b61026084015282528251808401845281815263149bdbdd60e21b6020828101919091528084019190915283518085018552828152634269746560e01b81830152838501528351808501855282815263536f6e6760e01b81830152606084015283518085018552828152632937b0b960e11b81830152608084015283518085018552600580825264047726173760dc1b8284015260a085019190915284518086018652600a815269125b9cdd1c9d5b595b9d60b21b8184015260c08501528451808601865283815263476c6f7760e01b8184015260e0850152845180860186526006808252652132b73232b960d11b828501526101008601919091528551808701875290815265536861646f7760d01b818401526101208501528451808601865260078152662bb434b9b832b960c91b81840152610140850152845180860186528181526414da1bdd5d60da1b81840152610160850152845180860186529081526411dc9bdddb60da1b8183015261018084015283518085018552828152632a32b0b960e11b818301526101a084015283518085018552828152635065616b60e01b818301526101c08401528351808501855282815263466f726d60e01b818301526101e084015283518085018552600381526229bab760e91b8183015261020084015283518085019094529083526326b7b7b760e11b9083015261022081019190915262001c4290601690601262001d20565b5034801562001c5057600080fd5b506040805180820182526009815268135bdc9948131bdbdd60ba1b602080830191825283518085019094526005845264135313d3d560da1b90840152815191929162001c9f9160009162001f1e565b50805162001cb590600190602084019062001f1e565b50506001600a555062001cc83362001cce565b62002060565b600b80546001600160a01b038381166001600160a01b0319831681179093556040519116919082907f8be0079c531659141344cd1fd0a4f28419497f9722a3daafe3b4186f6b6457e090600090a35050565b82805482825590600052602060002090810192821562001d72579160200282015b8281111562001d72578251805162001d6191849160209091019062001f1e565b509160200191906001019062001d41565b5062001d8092915062001fa9565b5090565b82805482825590600052602060002090810192821562001d72579160200282015b8281111562001d72578251805162001dc591849160209091019062001f1e565b509160200191906001019062001da5565b82805482825590600052602060002090810192821562001d72579160200282015b8281111562001d72578251805162001e1791849160209091019062001f1e565b509160200191906001019062001df7565b82805482825590600052602060002090810192821562001d72579160200282015b8281111562001d72578251805162001e6991849160209091019062001f1e565b509160200191906001019062001e49565b82805482825590600052602060002090810192821562001d72579160200282015b8281111562001d72578251805162001ebb91849160209091019062001f1e565b509160200191906001019062001e9b565b82805482825590600052602060002090810192821562001d72579160200282015b8281111562001d72578251805162001f0d91849160209091019062001f1e565b509160200191906001019062001eed565b82805462001f2c9062002023565b90600052602060002090601f01602090048101928262001f50576000855562001f9b565b82601f1062001f6b57805160ff191683800117855562001f9b565b8280016001018555821562001f9b579182015b8281111562001f9b57825182559160200191906001019062001f7e565b5062001d8092915062001fca565b8082111562001d8057600062001fc0828262001fe1565b5060010162001fa9565b5b8082111562001d80576000815560010162001fcb565b50805462001fef9062002023565b6000825580601f1062002000575050565b601f01602090049060005260206000209081019062002020919062001fca565b50565b600181811c908216806200203857607f821691505b602082108114156200205a57634e487b7160e01b600052602260045260246000fd5b50919050565b613df680620020706000396000f3fe608060405234801561001057600080fd5b50600436106101c45760003560e01c8063715018a6116100f9578063b88d4fde11610097578063d47f269e11610071578063d47f269e146103c3578063e985e9c5146103d6578063ef68075a1461041f578063f2fde38b1461043257600080fd5b8063b88d4fde1461038a578063c08a5dd51461039d578063c87b56dd146103b057600080fd5b80639720c969116100d35780639720c9691461033e5780639bdc1b69146103515780639e41b73f14610364578063a22cb4651461037757600080fd5b8063715018a6146103105780638da5cb5b1461031857806395d89b411461033657600080fd5b80632f745c59116101665780634f6ccce7116101405780634f6ccce7146102c45780636352211e146102d757806367209aa8146102ea57806370a08231146102fd57600080fd5b80632f745c591461028b578063379607f51461029e57806342842e0e146102b157600080fd5b8063095ea7b3116101a2578063095ea7b31461023e5780630e99990d1461025357806318160ddd1461026657806323b872dd1461027857600080fd5b806301ffc9a7146101c957806306fdde03146101f1578063081812fc14610206575b600080fd5b6101dc6101d7366004612fce565b610445565b60405190151581526020015b60405180910390f35b6101f96104a1565b6040516101e89190613068565b61021961021436600461307b565b610533565b60405173ffffffffffffffffffffffffffffffffffffffff90911681526020016101e8565b61025161024c3660046130bd565b610612565b005b6101f961026136600461307b565b61079f565b6008545b6040519081526020016101e8565b6102516102863660046130e7565b6108b2565b61026a6102993660046130bd565b610953565b6102516102ac36600461307b565b610a22565b6102516102bf3660046130e7565b610b31565b61026a6102d236600461307b565b610b4c565b6102196102e536600461307b565b610c0a565b6101f96102f836600461307b565b610cbc565b61026a61030b366004613123565b610dc6565b610251610e94565b600b5473ffffffffffffffffffffffffffffffffffffffff16610219565b6101f9610f21565b6101f961034c36600461307b565b610f30565b6101f961035f36600461307b565b61103a565b6101f961037236600461307b565b611144565b61025161038536600461313e565b61124e565b6102516103983660046131a9565b61125d565b6101f96103ab36600461307b565b611305565b6101f96103be36600461307b565b61140f565b6101f96103d136600461307b565b611703565b6101dc6103e43660046132a3565b73ffffffffffffffffffffffffffffffffffffffff918216600090815260056020908152604080832093909416825291909152205460ff1690565b6101f961042d36600461307b565b61180d565b610251610440366004613123565b611917565b60007fffffffff0000000000000000000000000000000000000000000000000000000082167f780e9d6300000000000000000000000000000000000000000000000000000000148061049b575061049b82611a47565b92915050565b6060600080546104b0906132d6565b80601f01602080910402602001604051908101604052809291908181526020018280546104dc906132d6565b80156105295780601f106104fe57610100808354040283529160200191610529565b820191906000526020600020905b81548152906001019060200180831161050c57829003601f168201915b5050505050905090565b60008181526002602052604081205473ffffffffffffffffffffffffffffffffffffffff166105e9576040517f08c379a000000000000000000000000000000000000000000000000000000000815260206004820152602c60248201527f4552433732313a20617070726f76656420717565727920666f72206e6f6e657860448201527f697374656e7420746f6b656e000000000000000000000000000000000000000060648201526084015b60405180910390fd5b5060009081526004602052604090205473ffffffffffffffffffffffffffffffffffffffff1690565b600061061d82610c0a565b90508073ffffffffffffffffffffffffffffffffffffffff168373ffffffffffffffffffffffffffffffffffffffff1614156106db576040517f08c379a000000000000000000000000000000000000000000000000000000000815260206004820152602160248201527f4552433732313a20617070726f76616c20746f2063757272656e74206f776e6560448201527f720000000000000000000000000000000000000000000000000000000000000060648201526084016105e0565b3373ffffffffffffffffffffffffffffffffffffffff82161480610704575061070481336103e4565b610790576040517f08c379a000000000000000000000000000000000000000000000000000000000815260206004820152603860248201527f4552433732313a20617070726f76652063616c6c6572206973206e6f74206f7760448201527f6e6572206e6f7220617070726f76656420666f7220616c6c000000000000000060648201526084016105e0565b61079a8383611b2a565b505050565b606061049b826040518060400160405280600481526020017f464f4f54000000000000000000000000000000000000000000000000000000008152506010805480602002602001604051908101604052809291908181526020016000905b828210156108a957838290600052602060002001805461081c906132d6565b80601f0160208091040260200160405190810160405280929190818152602001828054610848906132d6565b80156108955780601f1061086a57610100808354040283529160200191610895565b820191906000526020600020905b81548152906001019060200180831161087857829003601f168201915b5050505050815260200190600101906107fd565b50505050611bca565b6108bc3382611ea3565b610948576040517f08c379a000000000000000000000000000000000000000000000000000000000815260206004820152603160248201527f4552433732313a207472616e736665722063616c6c6572206973206e6f74206f60448201527f776e6572206e6f7220617070726f76656400000000000000000000000000000060648201526084016105e0565b61079a838383612013565b600061095e83610dc6565b82106109ec576040517f08c379a000000000000000000000000000000000000000000000000000000000815260206004820152602b60248201527f455243373231456e756d657261626c653a206f776e657220696e646578206f7560448201527f74206f6620626f756e647300000000000000000000000000000000000000000060648201526084016105e0565b5073ffffffffffffffffffffffffffffffffffffffff919091166000908152600660209081526040808320938352929052205490565b6002600a541415610a8f576040517f08c379a000000000000000000000000000000000000000000000000000000000815260206004820152601f60248201527f5265656e7472616e637947756172643a207265656e7472616e742063616c6c0060448201526064016105e0565b6002600a55611f4081118015610ab95750610aab600a43613388565b610ab690600161339c565b81105b610b1f576040517f08c379a000000000000000000000000000000000000000000000000000000000815260206004820152601060248201527f546f6b656e20494420696e76616c69640000000000000000000000000000000060448201526064016105e0565b610b293382612285565b506001600a55565b61079a8383836040518060200160405280600081525061125d565b6000610b5760085490565b8210610be5576040517f08c379a000000000000000000000000000000000000000000000000000000000815260206004820152602c60248201527f455243373231456e756d657261626c653a20676c6f62616c20696e646578206f60448201527f7574206f6620626f756e6473000000000000000000000000000000000000000060648201526084016105e0565b60088281548110610bf857610bf86133b4565b90600052602060002001549050919050565b60008181526002602052604081205473ffffffffffffffffffffffffffffffffffffffff168061049b576040517f08c379a000000000000000000000000000000000000000000000000000000000815260206004820152602960248201527f4552433732313a206f776e657220717565727920666f72206e6f6e657869737460448201527f656e7420746f6b656e000000000000000000000000000000000000000000000060648201526084016105e0565b606061049b826040518060400160405280600481526020017f4e45434b000000000000000000000000000000000000000000000000000000008152506012805480602002602001604051908101604052809291908181526020016000905b828210156108a9578382906000526020600020018054610d39906132d6565b80601f0160208091040260200160405190810160405280929190818152602001828054610d65906132d6565b8015610db25780601f10610d8757610100808354040283529160200191610db2565b820191906000526020600020905b815481529060010190602001808311610d9557829003601f168201915b505050505081526020019060010190610d1a565b600073ffffffffffffffffffffffffffffffffffffffff8216610e6b576040517f08c379a000000000000000000000000000000000000000000000000000000000815260206004820152602a60248201527f4552433732313a2062616c616e636520717565727920666f7220746865207a6560448201527f726f20616464726573730000000000000000000000000000000000000000000060648201526084016105e0565b5073ffffffffffffffffffffffffffffffffffffffff1660009081526003602052604090205490565b600b5473ffffffffffffffffffffffffffffffffffffffff163314610f15576040517f08c379a000000000000000000000000000000000000000000000000000000000815260206004820181905260248201527f4f776e61626c653a2063616c6c6572206973206e6f7420746865206f776e657260448201526064016105e0565b610f1f600061229f565b565b6060600180546104b0906132d6565b606061049b826040518060400160405280600481526020017f4845414400000000000000000000000000000000000000000000000000000000815250600e805480602002602001604051908101604052809291908181526020016000905b828210156108a9578382906000526020600020018054610fad906132d6565b80601f0160208091040260200160405190810160405280929190818152602001828054610fd9906132d6565b80156110265780601f10610ffb57610100808354040283529160200191611026565b820191906000526020600020905b81548152906001019060200180831161100957829003601f168201915b505050505081526020019060010190610f8e565b606061049b826040518060400160405280600581526020017f5741495354000000000000000000000000000000000000000000000000000000815250600f805480602002602001604051908101604052809291908181526020016000905b828210156108a95783829060005260206000200180546110b7906132d6565b80601f01602080910402602001604051908101604052809291908181526020018280546110e3906132d6565b80156111305780601f1061110557610100808354040283529160200191611130565b820191906000526020600020905b81548152906001019060200180831161111357829003601f168201915b505050505081526020019060010190611098565b606061049b826040518060400160405280600681526020017f574541504f4e0000000000000000000000000000000000000000000000000000815250600c805480602002602001604051908101604052809291908181526020016000905b828210156108a95783829060005260206000200180546111c1906132d6565b80601f01602080910402602001604051908101604052809291908181526020018280546111ed906132d6565b801561123a5780601f1061120f5761010080835404028352916020019161123a565b820191906000526020600020905b81548152906001019060200180831161121d57829003601f168201915b5050505050815260200190600101906111a2565b611259338383612316565b5050565b6112673383611ea3565b6112f3576040517f08c379a000000000000000000000000000000000000000000000000000000000815260206004820152603160248201527f4552433732313a207472616e736665722063616c6c6572206973206e6f74206f60448201527f776e6572206e6f7220617070726f76656400000000000000000000000000000060648201526084016105e0565b6112ff84848484612444565b50505050565b606061049b826040518060400160405280600481526020017f52494e47000000000000000000000000000000000000000000000000000000008152506013805480602002602001604051908101604052809291908181526020016000905b828210156108a9578382906000526020600020018054611382906132d6565b80601f01602080910402602001604051908101604052809291908181526020018280546113ae906132d6565b80156113fb5780601f106113d0576101008083540402835291602001916113fb565b820191906000526020600020905b8154815290600101906020018083116113de57829003601f168201915b505050505081526020019060010190611363565b6060611419612f5f565b60405180610120016040528060fd8152602001613c3360fd9139815261143e83611144565b8160016020020181905250604051806060016040528060288152602001613d996028913960408201526114708361180d565b6060808301919091526040805191820190526028808252613b686020830139608082015261149d83610f30565b60a082015260408051606081019091526028808252613be2602083013960c08201526114c88361103a565b60e082015260408051606081019091526029808252613c0a60208301396101008201526114f48361079f565b61012082015260408051606081019091526029808252613bb9602083013961014082015261152183611703565b61016082015260408051606081019091526029808252613d30602083013961018082015261154e83610cbc565b6101a082015260408051606081019091526029808252613b9060208301396101c082015261157b83611305565b6101e0820152604080518082018252600d81527f3c2f746578743e3c2f7376673e00000000000000000000000000000000000000602080830191909152610200840191909152825181840151838501516060860151608087015160a088015160c089015160e08a01516101008b0151995160009a6115fb9a9091016133ff565b604080518083037fffffffffffffffffffffffffffffffffffffffffffffffffffffffffffffffe0018152908290526101208401516101408501516101608601516101808701516101a08801516101c08901516101e08a01516102008b015197995061166c988a98906020016133ff565b604051602081830303815290604052905060006116b961168b866124e7565b61169484612619565b6040516020016116a59291906134c0565b604051602081830303815290604052612619565b9050806040516020016116cc91906136e4565b604080517fffffffffffffffffffffffffffffffffffffffffffffffffffffffffffffffe081840301815291905295945050505050565b606061049b826040518060400160405280600481526020017f48414e44000000000000000000000000000000000000000000000000000000008152506011805480602002602001604051908101604052809291908181526020016000905b828210156108a9578382906000526020600020018054611780906132d6565b80601f01602080910402602001604051908101604052809291908181526020018280546117ac906132d6565b80156117f95780601f106117ce576101008083540402835291602001916117f9565b820191906000526020600020905b8154815290600101906020018083116117dc57829003601f168201915b505050505081526020019060010190611761565b606061049b826040518060400160405280600581526020017f4348455354000000000000000000000000000000000000000000000000000000815250600d805480602002602001604051908101604052809291908181526020016000905b828210156108a957838290600052602060002001805461188a906132d6565b80601f01602080910402602001604051908101604052809291908181526020018280546118b6906132d6565b80156119035780601f106118d857610100808354040283529160200191611903565b820191906000526020600020905b8154815290600101906020018083116118e657829003601f168201915b50505050508152602001906001019061186b565b600b5473ffffffffffffffffffffffffffffffffffffffff163314611998576040517f08c379a000000000000000000000000000000000000000000000000000000000815260206004820181905260248201527f4f776e61626c653a2063616c6c6572206973206e6f7420746865206f776e657260448201526064016105e0565b73ffffffffffffffffffffffffffffffffffffffff8116611a3b576040517f08c379a000000000000000000000000000000000000000000000000000000000815260206004820152602660248201527f4f776e61626c653a206e6577206f776e657220697320746865207a65726f206160448201527f646472657373000000000000000000000000000000000000000000000000000060648201526084016105e0565b611a448161229f565b50565b60007fffffffff0000000000000000000000000000000000000000000000000000000082167f80ac58cd000000000000000000000000000000000000000000000000000000001480611ada57507fffffffff0000000000000000000000000000000000000000000000000000000082167f5b5e139f00000000000000000000000000000000000000000000000000000000145b8061049b57507f01ffc9a7000000000000000000000000000000000000000000000000000000007fffffffff0000000000000000000000000000000000000000000000000000000083161461049b565b600081815260046020526040902080547fffffffffffffffffffffffff00000000000000000000000000000000000000001673ffffffffffffffffffffffffffffffffffffffff84169081179091558190611b8482610c0a565b73ffffffffffffffffffffffffffffffffffffffff167f8c5be1e5ebec7d5bd14f71427d1e84f3dd0314c0f7b2291e5b200ac8c7c3b92560405160405180910390a45050565b60606000611c0084611bdb876124e7565b604051602001611bec929190613729565b6040516020818303038152906040526127f2565b9050600083845183611c129190613758565b81518110611c2257611c226133b4565b602002602001015190506000601583611c3b9190613758565b9050600e811115611c945760148054839190611c579086613758565b81548110611c6757611c676133b4565b90600052602060002001604051602001611c8292919061376c565b60405160208183030381529060405291505b60138110611e9957611ca4612f87565b60158054611cb29086613758565b81548110611cc257611cc26133b4565b906000526020600020018054611cd7906132d6565b80601f0160208091040260200160405190810160405280929190818152602001828054611d03906132d6565b8015611d505780601f10611d2557610100808354040283529160200191611d50565b820191906000526020600020905b815481529060010190602001808311611d3357829003601f168201915b505050505081600060028110611d6857611d686133b4565b602002015260168054611d7b9086613758565b81548110611d8b57611d8b6133b4565b906000526020600020018054611da0906132d6565b80601f0160208091040260200160405190810160405280929190818152602001828054611dcc906132d6565b8015611e195780601f10611dee57610100808354040283529160200191611e19565b820191906000526020600020905b815481529060010190602001808311611dfc57829003601f168201915b505050505081600160028110611e3157611e316133b4565b60200201526013821415611e6d578051602080830151604051611e57939287910161387f565b6040516020818303038152906040529250611e97565b8051602080830151604051611e85939287910161393f565b60405160208183030381529060405292505b505b5095945050505050565b60008181526002602052604081205473ffffffffffffffffffffffffffffffffffffffff16611f54576040517f08c379a000000000000000000000000000000000000000000000000000000000815260206004820152602c60248201527f4552433732313a206f70657261746f7220717565727920666f72206e6f6e657860448201527f697374656e7420746f6b656e000000000000000000000000000000000000000060648201526084016105e0565b6000611f5f83610c0a565b90508073ffffffffffffffffffffffffffffffffffffffff168473ffffffffffffffffffffffffffffffffffffffff161480611fce57508373ffffffffffffffffffffffffffffffffffffffff16611fb684610533565b73ffffffffffffffffffffffffffffffffffffffff16145b8061200b575073ffffffffffffffffffffffffffffffffffffffff80821660009081526005602090815260408083209388168352929052205460ff165b949350505050565b8273ffffffffffffffffffffffffffffffffffffffff1661203382610c0a565b73ffffffffffffffffffffffffffffffffffffffff16146120d6576040517f08c379a000000000000000000000000000000000000000000000000000000000815260206004820152602560248201527f4552433732313a207472616e736665722066726f6d20696e636f72726563742060448201527f6f776e657200000000000000000000000000000000000000000000000000000060648201526084016105e0565b73ffffffffffffffffffffffffffffffffffffffff8216612178576040517f08c379a0000000000000000000000000000000000000000000000000000000008152602060048201526024808201527f4552433732313a207472616e7366657220746f20746865207a65726f2061646460448201527f726573730000000000000000000000000000000000000000000000000000000060648201526084016105e0565b612183838383612841565b61218e600082611b2a565b73ffffffffffffffffffffffffffffffffffffffff831660009081526003602052604081208054600192906121c4908490613a29565b909155505073ffffffffffffffffffffffffffffffffffffffff821660009081526003602052604081208054600192906121ff90849061339c565b909155505060008181526002602052604080822080547fffffffffffffffffffffffff00000000000000000000000000000000000000001673ffffffffffffffffffffffffffffffffffffffff86811691821790925591518493918716917fddf252ad1be2c89b69c2b068fc378daa952ba7f163c4a11628f55a4df523b3ef91a4505050565b611259828260405180602001604052806000815250612947565b600b805473ffffffffffffffffffffffffffffffffffffffff8381167fffffffffffffffffffffffff0000000000000000000000000000000000000000831681179093556040519116919082907f8be0079c531659141344cd1fd0a4f28419497f9722a3daafe3b4186f6b6457e090600090a35050565b8173ffffffffffffffffffffffffffffffffffffffff168373ffffffffffffffffffffffffffffffffffffffff1614156123ac576040517f08c379a000000000000000000000000000000000000000000000000000000000815260206004820152601960248201527f4552433732313a20617070726f766520746f2063616c6c65720000000000000060448201526064016105e0565b73ffffffffffffffffffffffffffffffffffffffff83811660008181526005602090815260408083209487168084529482529182902080547fffffffffffffffffffffffffffffffffffffffffffffffffffffffffffffff001686151590811790915591519182527f17307eab39ab6107e8899845ad3d59bd9653f200f220920489ca2b5937696c31910160405180910390a3505050565b61244f848484612013565b61245b848484846129ea565b6112ff576040517f08c379a000000000000000000000000000000000000000000000000000000000815260206004820152603260248201527f4552433732313a207472616e7366657220746f206e6f6e20455243373231526560448201527f63656976657220696d706c656d656e746572000000000000000000000000000060648201526084016105e0565b60608161252757505060408051808201909152600181527f3000000000000000000000000000000000000000000000000000000000000000602082015290565b8160005b8115612551578061253b81613a40565b915061254a9050600a83613388565b915061252b565b60008167ffffffffffffffff81111561256c5761256c61317a565b6040519080825280601f01601f191660200182016040528015612596576020820181803683370190505b5090505b841561200b576125ab600183613a29565b91506125b8600a86613758565b6125c390603061339c565b60f81b8183815181106125d8576125d86133b4565b60200101907effffffffffffffffffffffffffffffffffffffffffffffffffffffffffffff1916908160001a905350612612600a86613388565b945061259a565b805160609080612639575050604080516020810190915260008152919050565b6000600361264883600261339c565b6126529190613388565b61265d906004613a79565b9050600061266c82602061339c565b67ffffffffffffffff8111156126845761268461317a565b6040519080825280601f01601f1916602001820160405280156126ae576020820181803683370190505b5090506000604051806060016040528060408152602001613d59604091399050600181016020830160005b8681101561273a576003818a01810151603f601282901c8116860151600c83901c8216870151600684901c831688015192909316870151600891821b60ff94851601821b92841692909201901b91160160e01b8352600490920191016126d9565b506003860660018114612754576002811461279e576127e4565b7f3d3d0000000000000000000000000000000000000000000000000000000000007ffffffffffffffffffffffffffffffffffffffffffffffffffffffffffffffffe8301526127e4565b7f3d000000000000000000000000000000000000000000000000000000000000007fffffffffffffffffffffffffffffffffffffffffffffffffffffffffffffffff8301525b505050918152949350505050565b6000816040516020016128059190613ab6565b604080517fffffffffffffffffffffffffffffffffffffffffffffffffffffffffffffffe0818403018152919052805160209091012092915050565b73ffffffffffffffffffffffffffffffffffffffff83166128a9576128a481600880546000838152600960205260408120829055600182018355919091527ff3f7a9fe364faab93b216da50a3214154f22a0a2b415b23a84c8169e8b636ee30155565b6128e6565b8173ffffffffffffffffffffffffffffffffffffffff168373ffffffffffffffffffffffffffffffffffffffff16146128e6576128e68382612bda565b73ffffffffffffffffffffffffffffffffffffffff821661290a5761079a81612c91565b8273ffffffffffffffffffffffffffffffffffffffff168273ffffffffffffffffffffffffffffffffffffffff161461079a5761079a8282612d40565b6129518383612d91565b61295e60008484846129ea565b61079a576040517f08c379a000000000000000000000000000000000000000000000000000000000815260206004820152603260248201527f4552433732313a207472616e7366657220746f206e6f6e20455243373231526560448201527f63656976657220696d706c656d656e746572000000000000000000000000000060648201526084016105e0565b600073ffffffffffffffffffffffffffffffffffffffff84163b15612bcf576040517f150b7a0200000000000000000000000000000000000000000000000000000000815273ffffffffffffffffffffffffffffffffffffffff85169063150b7a0290612a61903390899088908890600401613ad2565b6020604051808303816000875af1925050508015612aba575060408051601f3d9081017fffffffffffffffffffffffffffffffffffffffffffffffffffffffffffffffe0168201909252612ab791810190613b1b565b60015b612b84573d808015612ae8576040519150601f19603f3d011682016040523d82523d6000602084013e612aed565b606091505b508051612b7c576040517f08c379a000000000000000000000000000000000000000000000000000000000815260206004820152603260248201527f4552433732313a207472616e7366657220746f206e6f6e20455243373231526560448201527f63656976657220696d706c656d656e746572000000000000000000000000000060648201526084016105e0565b805181602001fd5b7fffffffff00000000000000000000000000000000000000000000000000000000167f150b7a020000000000000000000000000000000000000000000000000000000014905061200b565b506001949350505050565b60006001612be784610dc6565b612bf19190613a29565b600083815260076020526040902054909150808214612c515773ffffffffffffffffffffffffffffffffffffffff841660009081526006602090815260408083208584528252808320548484528184208190558352600790915290208190555b50600091825260076020908152604080842084905573ffffffffffffffffffffffffffffffffffffffff9094168352600681528383209183525290812055565b600854600090612ca390600190613a29565b60008381526009602052604081205460088054939450909284908110612ccb57612ccb6133b4565b906000526020600020015490508060088381548110612cec57612cec6133b4565b6000918252602080832090910192909255828152600990915260408082208490558582528120556008805480612d2457612d24613b38565b6001900381819060005260206000200160009055905550505050565b6000612d4b83610dc6565b73ffffffffffffffffffffffffffffffffffffffff9093166000908152600660209081526040808320868452825280832085905593825260079052919091209190915550565b73ffffffffffffffffffffffffffffffffffffffff8216612e0e576040517f08c379a000000000000000000000000000000000000000000000000000000000815260206004820181905260248201527f4552433732313a206d696e7420746f20746865207a65726f206164647265737360448201526064016105e0565b60008181526002602052604090205473ffffffffffffffffffffffffffffffffffffffff1615612e9a576040517f08c379a000000000000000000000000000000000000000000000000000000000815260206004820152601c60248201527f4552433732313a20746f6b656e20616c7265616479206d696e7465640000000060448201526064016105e0565b612ea660008383612841565b73ffffffffffffffffffffffffffffffffffffffff82166000908152600360205260408120805460019290612edc90849061339c565b909155505060008181526002602052604080822080547fffffffffffffffffffffffff00000000000000000000000000000000000000001673ffffffffffffffffffffffffffffffffffffffff861690811790915590518392907fddf252ad1be2c89b69c2b068fc378daa952ba7f163c4a11628f55a4df523b3ef908290a45050565b6040518061022001604052806011905b6060815260200190600190039081612f6f5790505090565b6040805180820190915260608152600160208201612f6f565b7fffffffff0000000000000000000000000000000000000000000000000000000081168114611a4457600080fd5b600060208284031215612fe057600080fd5b8135612feb81612fa0565b9392505050565b60005b8381101561300d578181015183820152602001612ff5565b838111156112ff5750506000910152565b60008151808452613036816020860160208601612ff2565b601f017fffffffffffffffffffffffffffffffffffffffffffffffffffffffffffffffe0169290920160200192915050565b602081526000612feb602083018461301e565b60006020828403121561308d57600080fd5b5035919050565b803573ffffffffffffffffffffffffffffffffffffffff811681146130b857600080fd5b919050565b600080604083850312156130d057600080fd5b6130d983613094565b946020939093013593505050565b6000806000606084860312156130fc57600080fd5b61310584613094565b925061311360208501613094565b9150604084013590509250925092565b60006020828403121561313557600080fd5b612feb82613094565b6000806040838503121561315157600080fd5b61315a83613094565b91506020830135801515811461316f57600080fd5b809150509250929050565b7f4e487b7100000000000000000000000000000000000000000000000000000000600052604160045260246000fd5b600080600080608085870312156131bf57600080fd5b6131c885613094565b93506131d660208601613094565b925060408501359150606085013567ffffffffffffffff808211156131fa57600080fd5b818701915087601f83011261320e57600080fd5b8135818111156132205761322061317a565b604051601f82017fffffffffffffffffffffffffffffffffffffffffffffffffffffffffffffffe0908116603f011681019083821181831017156132665761326661317a565b816040528281528a602084870101111561327f57600080fd5b82602086016020830137600060208483010152809550505050505092959194509250565b600080604083850312156132b657600080fd5b6132bf83613094565b91506132cd60208401613094565b90509250929050565b600181811c908216806132ea57607f821691505b60208210811415613324577f4e487b7100000000000000000000000000000000000000000000000000000000600052602260045260246000fd5b50919050565b7f4e487b7100000000000000000000000000000000000000000000000000000000600052601260045260246000fd5b7f4e487b7100000000000000000000000000000000000000000000000000000000600052601160045260246000fd5b6000826133975761339761332a565b500490565b600082198211156133af576133af613359565b500190565b7f4e487b7100000000000000000000000000000000000000000000000000000000600052603260045260246000fd5b600081516133f5818560208601612ff2565b9290920192915050565b60008a51613411818460208f01612ff2565b8a516134238183860160208f01612ff2565b8a519184010190613438818360208e01612ff2565b895161344a8183850160208e01612ff2565b8951929091010190613460818360208c01612ff2565b87516134728183850160208c01612ff2565b8751929091010190613488818360208a01612ff2565b855161349a8183850160208a01612ff2565b85519290910101906134b0818360208801612ff2565b019b9a5050505050505050505050565b7f7b226e616d65223a2022426167202300000000000000000000000000000000008152600083516134f881600f850160208801612ff2565b7f222c20226465736372697074696f6e223a20224d6f7265204c6f6f7420697320600f918401918201527f6164646974696f6e616c2072616e646f6d697a656420616476656e7475726572602f8201527f20676561722067656e65726174656420616e642073746f726564206f6e206368604f8201527f61696e2e204d6178696d756d20737570706c792069732064796e616d69632c20606f8201527f696e6372656173696e6720617420312f31307468206f6620457468657265756d608f8201527f277320626c6f636b20726174652e2053746174732c20696d616765732c20616e60af8201527f64206f746865722066756e6374696f6e616c6974792061726520696e74656e7460cf8201527f696f6e616c6c79206f6d697474656420666f72206f746865727320746f20696e60ef8201527f746572707265742e204665656c206672656520746f20757365204d6f7265204c61010f8201527f6f6f7420696e20616e792077617920796f752077616e742e222c2022696d616761012f8201527f65223a2022646174613a696d6167652f7376672b786d6c3b6261736536342c0061014f8201526136db6136b261016e8301866133e3565b7f227d000000000000000000000000000000000000000000000000000000000000815260020190565b95945050505050565b7f646174613a6170706c69636174696f6e2f6a736f6e3b6261736536342c00000081526000825161371c81601d850160208701612ff2565b91909101601d0192915050565b6000835161373b818460208801612ff2565b83519083019061374f818360208801612ff2565b01949350505050565b6000826137675761376761332a565b500690565b60008351602061377f8285838901612ff2565b7f2000000000000000000000000000000000000000000000000000000000000000918401918252845460019060009080831c818416806137c057607f821691505b8582108114156137f7577f4e487b710000000000000000000000000000000000000000000000000000000084526022600452602484fd5b80801561380b576001811461383e5761386f565b7fffffffffffffffffffffffffffffffffffffffffffffffffffffffffffffff008416868901528583890101945061386f565b60008b81526020902060005b848110156138655781548a820189015290870190880161384a565b5050858389010194505b50929a9950505050505050505050565b7f22000000000000000000000000000000000000000000000000000000000000008152600084516138b7816001850160208901612ff2565b7f200000000000000000000000000000000000000000000000000000000000000060019184019182015284516138f4816002840160208901612ff2565b7f2220000000000000000000000000000000000000000000000000000000000000600292909101918201528351613932816004840160208801612ff2565b0160040195945050505050565b7f2200000000000000000000000000000000000000000000000000000000000000815260008451613977816001850160208901612ff2565b7f200000000000000000000000000000000000000000000000000000000000000060019184019182015284516139b4816002840160208901612ff2565b7f22200000000000000000000000000000000000000000000000000000000000006002929091019182015283516139f2816004840160208801612ff2565b7f202b3100000000000000000000000000000000000000000000000000000000006004929091019182015260070195945050505050565b600082821015613a3b57613a3b613359565b500390565b60007fffffffffffffffffffffffffffffffffffffffffffffffffffffffffffffffff821415613a7257613a72613359565b5060010190565b6000817fffffffffffffffffffffffffffffffffffffffffffffffffffffffffffffffff0483118215151615613ab157613ab1613359565b500290565b60008251613ac8818460208701612ff2565b9190910192915050565b600073ffffffffffffffffffffffffffffffffffffffff808716835280861660208401525083604083015260806060830152613b11608083018461301e565b9695505050505050565b600060208284031215613b2d57600080fd5b8151612feb81612fa0565b7f4e487b7100000000000000000000000000000000000000000000000000000000600052603160045260246000fdfe3c2f746578743e3c7465787420783d2231302220793d2236302220636c6173733d2262617365223e3c2f746578743e3c7465787420783d2231302220793d223136302220636c6173733d2262617365223e3c2f746578743e3c7465787420783d2231302220793d223132302220636c6173733d2262617365223e3c2f746578743e3c7465787420783d2231302220793d2238302220636c6173733d2262617365223e3c2f746578743e3c7465787420783d2231302220793d223130302220636c6173733d2262617365223e3c73766720786d6c6e733d22687474703a2f2f7777772e77332e6f72672f323030302f73766722207072657365727665417370656374526174696f3d22784d696e594d696e206d656574222076696577426f783d223020302033353020333530223e3c7374796c653e2e62617365207b2066696c6c3a2077686974653b20666f6e742d66616d696c793a2073657269663b20666f6e742d73697a653a20313470783b207d3c2f7374796c653e3c726563742077696474683d223130302522206865696768743d2231303025222066696c6c3d22626c61636b22202f3e3c7465787420783d2231302220793d2232302220636c6173733d2262617365223e3c2f746578743e3c7465787420783d2231302220793d223134302220636c6173733d2262617365223e4142434445464748494a4b4c4d4e4f505152535455565758595a6162636465666768696a6b6c6d6e6f707172737475767778797a303132333435363738392b2f3c2f746578743e3c7465787420783d2231302220793d2234302220636c6173733d2262617365223ea26469706673582212207951dc58299c35c74f26d768a97df56028361801a16ed076be67ba905b0820c564736f6c634300080a0033",
    "linkReferences": {}
  }
}